:020000041000EA
:1000000000B5324B212058609868022188439860DF
:10001000D860186158612E4B002199600221596106
:100020000121F02299502B49196001219960352056
:1000300000F044F80222904214D00621196600F024
:1000400034F8196E01211966002018661A6600F04E
:100050002CF8196E196E196E052000F02FF8012189
:100060000842F9D1002199601B49196000215960AB
:100070001A491B48016001219960EB211966A021F2
:10008000196600F012F800219960164914480160C1
:100090000121996001BC002800D000471248134993
:1000A000086003C880F30888084703B5996A0420EC
:1000B0000142FBD001200142F8D103BD02B5186610
:1000C0001866FFF7F2FF186E186E02BD00000240BE
:1000D000000000180000070000035F00212200005C
:1000E000F4000018222000A00001001008ED00E03C
:1000F00000000000000000000000000074B24E7A12
:1001000000200420F7010010C3010010C5010010F9
:10011000C1010010C1010010C1010010C101001097
:10012000C1010010C1010010C1010010C701001081
:10013000C1010010C1010010C9010010CB01001065
:10014000CD010010CD010010CD010010CD01001037
:10015000CD010010CD010010CD010010CD01001027
:10016000CD010010CD010010CD010010CD01001017
:10017000CD010010CD010010CD010010CD01001007
:10018000CD010010CD010010CD010010CD010010F7
:10019000CD010010CD010010CD010010CD010010E7
:1001A000CD010010CD010010CD010010CD010010D7
:1001B000CD010010CD010010CD010010CD010010C7
:1001C00000BE00BE00BE00BE00BE00BE00F04BF888
:1001D000103800BEF2EB887198B60010BCB6001063
:1001E0003402001090A31AE700202149086006C8D5
:1001F00081F3088810471F48006800282FD10DA4FC
:100200000ECC002902D000F012F8F9E71A491B4A77
:10021000002000E001C19142FCD1194988471949E9
:1002200088471949884700BEFDE701C901C29A42C3
:10023000FBD37047BCB60010C0000020F0170020B0
:10024000ECCD00100000042000000420ECCD0010D4
:1002500000100420001004200000000070470B482C
:1002600008F0CEF80047EFF30580C0B270470000F9
:1002700008ED00E0000000D0F0170020702B0020F7
:10028000D16D0010694200108D6D001057560000AE
:1002900006005250ABB3605328B400100600525011
:1002A000861C030238B40010060052505422A29D4E
:1002B0004CB4001005005250DE65F468ECCD00101F
:1002C000F8B5C04610B5064C2378002B07D1054B76
:1002D000002B02D0044800E000BF0123237010BDB2
:1002E0001819002000000000D89D0010044B10B524
:1002F000002B03D00349044800E000BF10BDC046F6
:10030000000000001C190020D89D0010F0B5C64662
:1003100000B584B004000E0017001D0005F0E2FED9
:100320008046E117FA2292000023200008F03AFFED
:1003300002000B00029501970096404606F018F85F
:1003400004B080BCB846F0BD002809D00C280DD000
:1003500011D900230B70FF3313700C38C0B204E0C6
:10036000FF230B70002313700C30704700230B70B9
:10037000FF331370F9E7FF230B7000231370F4E7CA
:1003800000B587B0104B19784B005B189B005B18C9
:100390000E4A12789B189B000D4A9B180D4A127842
:1003A0000D49097804910D49097803910C490978A0
:1003B00002910C49097801910B49097800910B4988
:1003C00007F0F2FF07B000BD6E1000203D2B0020AB
:1003D0003C120020382B00205C2B00203B2B0020FF
:1003E000392B00203E2B0020600F0020D89D0010EC
:1003F000094B1B78FF2B00D07047D0231B068022AF
:10040000D2015A61054BFF221A70054BFA3A1A7055
:10041000044B00221A70EFE7442B00204F2B0020E2
:10042000682B0020662B002010B5CF4B1B88002BBB
:1004300004D1CE4B1B78FF2B04D010BD013BCA4A20
:100440001380FAE7CA4B1A780132D2B21A70C94B3C
:100450001B78012B40D0022B7DD0032B00D1BDE0B7
:10046000042B00D1FDE0052B00D13EE1062BE4D1A9
:10047000BF4B1B783B2BE0D9BF4B1B78FF2B00D128
:1004800084E1D0231B068022D2019A61BA4BFF225D
:100490001A70BA4A13780133DBB21370B44A0021E0
:1004A0001170072BC9D90023B44A1370AF480370E9
:1004B000B14A1370B2490B780133DBB20B70FF21E4
:1004C00001701170012B00D86BE10023AC4A13704E
:1004D0000370A94A1370B0E7272ABCD9A64A12783C
:1004E000FF2A29D0D02212068021C9019161A24A97
:1004F000FF211170A1490A780132D2B20A709C49D9
:1005000000200870092AA6D900229C490A70974C3D
:10051000227099490A709A4802780132D2B2027068
:10052000FF2020700870012A11D9002294490A7016
:10053000227091490A708EE7D02212068021C901EB
:10054000516100228C490A7089490A7083E7864A02
:10055000A02111807FE7864A12783B2A00D87CE7E9
:10056000854A1278FF2A2AD0D02212068021C9019A
:100570009161814AFF21117080490A780132D2B21B
:100580000A707B4900200870042A00D865E7002221
:100590007A490A70754C227077490A707848027857
:1005A0000132D2B20270FF2020700870022A11D9E5
:1005B000002273490A7022706F490A704DE7D022F9
:1005C00012068021C901516100226B490A706849F5
:1005D0000A7042E7644AF02111803EE7644A1278CB
:1005E000312A00D83CE7644A1278FF2A2AD0D02268
:1005F00012068021C90191615F4AFF2111705F4994
:100600000A780132D2B20A70594900200870012AD2
:1006100000D825E7002259490A70544C22705649E7
:100620000A70574802780132D2B20270FF2020705F
:100630000870022A11D9002251490A7022704E49CD
:100640000A700DE7D02212068021C90151610022F3
:1006500049490A7046490A7002E7434AC821118095
:10066000FEE6434A1278632A00D8FCE6424A127832
:10067000FF2A2AD0D02212068021C90191613E4A68
:10068000FF2111703D490A780132D2B20A7038490F
:1006900000200870042A00D8E5E6002237490A70D5
:1006A000324C227034490A70354802780132D2B295
:1006B0000270FF2020700870022A11D900223049F0
:1006C0000A7022702C490A70CDE6D02212068021D1
:1006D000C9015161002228490A7025490A70C2E601
:1006E000214AC82149001180BDE6214A1278062A14
:1006F00000D8BBE6204A1278FF2A2AD0D022120660
:100700008021C90191611C4AFF2111701B490A789F
:100710000132D2B20A70164900200870002A00D1B6
:10072000A4E6002215490A70104C227012490A7082
:10073000134802780132D2B20270FF202070087094
:10074000002A1FD000220E490A7022700A490A703E
:100750008CE6D02212068021C9015161002206498F
:100760000A7003490A7081E6202B00204F2B0020DD
:10077000652B0020682B0020452B0020662B0020D5
:10078000672B0020094A1C2111806FE6D0231B062D
:100790008022D2015A610023054A1370054A137062
:1007A0004BE6024BF0221A8047E6C046202B002081
:1007B000452B0020652B0020F0B5D6464F46464617
:1007C000C0B50230C3B29A46DE0807241C400800B8
:1007D0002D38C0B2532806D9162908D0202908D0B0
:1007E000002902D03120012311E02E20FBE70D204B
:1007F000F9E72E20F7E7C200121AD218013AF100E9
:1008000059181D4FBF5C1D4A57540133DBB2072BEB
:100810002DD8002CEFD0F700FF18184A9046D1577A
:100820000822121B9446FF2265462A410A4052B212
:10083000C100091A591801390F4D695C0D00A54016
:100840002A434546EA555246EF2ADED8771CFF0078
:10085000DF19EA579146FF226546AA404D462A40D5
:1008600052B2654629410A434146CA55CDE7E0BC2C
:10087000BA46B146A846F0BD60A30010501900204A
:1008800010B5040020212000FFF796FF0834E4B2E1
:10089000F72CF7D910BD000010B5A0B0324A13787C
:1008A00001331370314B1A685B68314801214942AA
:1008B00080185941002902D137D1632835D9002445
:1008C0002C480121494280185941002903D101D106
:1008D0007C2800D80424AF204042C1178018594119
:1008E000002903D101D1632800D80824002B03D1AB
:1008F00001D1AE2A00D80E241F4B1B689B0705D5DB
:100900001E4B1B78042B12D0062B10D0164B1B78D5
:10091000A34222D9D0231B06802292019A61124B56
:1009200000221A70012020B010BD0224C8E7134B2A
:1009300006221A700020FFF7A3FF22001049684624
:1009400007F032FD6B4619780620FFF735FF6B463E
:1009500059780B20FFF730FFD8E7D0231B06802201
:1009600092015A61DEE7C046522B00203803002076
:1009700070FEFFFFEDFEFFFFF8170020372B002071
:10098000049E00100A4B1B68E022D2011340094A62
:100990001360094B04221A60054B1B68DB05FBD56D
:1009A000034B5B689BB20548C01A80B27047C046D3
:1009B00000C0044000D0044000E00440FF0F0000ED
:1009C000F8B5274B1B78FF2B00D0F8BD254E338898
:1009D00001333380FFF7D6FF02000023224F38682F
:1009E0007968801859413860796032881F4B9A4283
:1009F000EBD91C4B00221A801D4A002307F096FDFC
:100A00001C490B685A1C0A605B001B49C8520B2A20
:100A100002D9184B00221A60134B002000211860E5
:100A2000596000230BE05A0013498C5A00250E4AE6
:100A300010685168001969411060516001330B2B37
:100A4000F1D9094C0C2200232068616807F06EFD83
:100A50000A4B186059600022002322606360B4E7EB
:100A6000541000201C2B0020F017002087130000DA
:100A700088130000801A0020701000203803002026
:100A8000F0B587B00400002304E0E21800211170E3
:100A900001339BB2032BF8D9524E02A804F062FB3B
:100AA000072202A9300008F0BBFC307904F0B4FA48
:100AB0000500707904F0B0FA06004B4B1B78012B4F
:100AC00005D0494B1B78022B4BD007B0F0BD454AEF
:100AD000D1788A00521852009900C9180901521899
:100AE000424952188100091849009801C3185B0057
:100AF000CB183F495B183F49200007F055FC1F2DDC
:100B000028D8AD003C4B5B599F4605AB3B4A11884A
:100B1000198092789A70200009F0F4F82018314B6F
:100B20001A79374B1B780193364B1B78009305AB32
:100B3000354907F039FCC4E705AB344A1188198000
:100B400092789A70E7E705AB314A1188198092785C
:100B50009A70E0E705AB2F4A1188198092789A7055
:100B6000D9E7204DE9788A00521852009900CB1835
:100B70001B01D2181D4BD2182749200007F014FC86
:100B80002D79012D25D0200009F0BCF820182A006D
:100B9000224907F009FC200009F0B4F82018B2003F
:100BA00092195200104B1B789E01F618760092198C
:100BB0000F4E9219184907F0F7FB200009F0A2F830
:100BC00020180F4B1B780F4A1278154907F0ECFBE1
:100BD0007BE7200009F096F820182A00114907F059
:100BE000E3FBD8E75C2700206E100020640F002094
:100BF000A01000200C9E0010589E0010149E0010A3
:100C00003E2B0020600F0020249E0010189E001034
:100C10001C9E0010209E0010389E0010449E001064
:100C2000489E00103C9E001070B505000C00830724
:100C300005D1642107F038FC89B2002907D1C82109
:100C40004900280007F030FC89B2002929D10C2C7A
:100C500005D8A400284B1B599F46284B187870BD17
:100C6000264B5878FBE7254B9878F8E7234BD87844
:100C7000F5E7224B1879F2E7204B5879EFE71F4B45
:100C80009879ECE71D4BD879E9E71C4B187AE6E731
:100C90001A4B587AE3E7194B987AE0E7174BD87A62
:100CA000DDE70C2CDBD8A400154B1B599F46134BDA
:100CB000187BD4E7114B587BD1E7104B987BCEE7DC
:100CC0000E4BD87BCBE70D4B187CC8E70B4B587C01
:100CD000C5E70A4B987CC2E7084BD87CBFE7074BB7
:100CE000187DBCE7054B587DB9E7044B987DB6E706
:100CF000024BD87DB3E7C046D89E00108810002074
:100D00000C9F001010B504003B4A022313603B4BBC
:100D100019688023DB014B40E021C9010B403849B1
:100D20000B6004231360354B1B68DB05FBD5334B8D
:100D300058680004000C07F09BFE0022314B07F0BE
:100D400026FE0022304B07F022FE07F0D9FE2F4B83
:100D50001B78002B21D108F09BFA2D4A2D4B07F070
:100D6000E6FD2D4A2D4B07F0F4FD02000B0000209C
:100D70002B4907F0DCFD02000B002A49200007F098
:100D800013FB200008F0BEFFFF2318407F3B2354D5
:100D9000013024180023237010BD08F079FA1C4A92
:100DA0001C4B07F0C4FD1C4A1C4B07F0D2FD02008F
:100DB0000B0000201A4907F0BAFD00221A4B07F079
:100DC000E6FD0022194B07F0C4FD0022184B07F086
:100DD000B7FD02000B001349200007F0E5FA2000E0
:100DE00008F090FFFF2318407E3B23540130241865
:100DF00000232370D0E7C04600E0044000C0044058
:100E000000D0044000000A400000303F5F2B00206B
:100E1000643BDF4F8D97E63F7FC2D9AD65325C3FC3
:100E200000003B40409F00100000224000001440A2
:100E30000000404010B50400144B1A68C0239B0109
:100E40005340E022D2011340114A1360114B042297
:100E50001A600E4B1B68DB05FBD50C4B5B681B0453
:100E6000180C08F0EBF90C4908F0D9F9E6218905CE
:100E700008F0D5F9094908F0D2F908F009FA02009A
:100E80000B000749200007F08FFA10BD00C0044096
:100E900000D0044000E0044000005040000040400A
:100EA000549F001070B5050014004B1EDBB2012BDF
:100EB00024D901344A00A418013148004018052102
:100EC00007F0CAFA24182C19A8082418642128004D
:100ED00007F0EAFA80B2241AC8214900280007F076
:100EE000E3FA80B22018072107F0B6FAFF23194071
:100EF000062913D889000B4B5B589F460C31C9B2A9
:100F0000013DADB2D5E7022008E0032006E0042051
:100F100004E0052002E0062000E0072070BD01206B
:100F2000FCE7C046609F001010B508F0C9FB102018
:100F300004F0E2FA122004F0DFFA162004F0DCFAE2
:100F40000A2004F0D9FA0C2004F0D6FA0D2004F09F
:100F5000D3FA0B2004F0D0FA032004F0CDFA0920D4
:100F600004F0CAFA022004F0C7FA112004F0C4FA0F
:100F70000F2004F0C1FA9621334C0902200005F03D
:100F8000C3FE0221052004F06DFA0221042004F0C2
:100F900069FAE26A602353406E221A408024640199
:100FA0002A4B23431A600E2004F0A6FAD0231B0616
:100FB0008022D2015A62802252025A628022D202D8
:100FC0005A628022D2035A628022D2005A625C6244
:100FD000802292015A62802212015A6208229A6289
:100FE0001B491C4808F094FD0321062004F03AFA3E
:100FF0000321072004F036FA00220121062004F024
:1010000049FA00220121072004F044FA08F0C4FD47
:101010001F211A2004F026FA002200211A2004F0D1
:1010200039FA00211A2004F04FFA1F211D2004F084
:1010300019FA002200211D2004F02CFA00211D20A5
:1010400004F042FA002010BD008003402C800340D1
:10105000A08601009C130020F8B5DE4657464E4698
:101060004546E0B5002304E09B4A0021D1540133FA
:10107000DBB2F72BF8D9002530E0012C18D811E0AD
:10108000EA00D2180120A040934EB15C0143B15454
:101090000133DBB2072BF3D9002D1BD1FA2040001E
:1010A00005F06CFA0134E4B2072C15D8002DE4D019
:1010B000022DF1D80123EDE76B1EDB009B18012008
:1010C000A040854EF15C8143F1540132D2B2072A2F
:1010D000F2D9E3E70122FAE70135EDB2032D01D899
:1010E0000024E1E70020FFF7CBFB7B4C40239B462D
:1010F000237C5A4613432374FA20C00005F03EFABD
:1011000020239A46237C524613432374734D2800B0
:1011100005F034FA08239946237C4A461343237486
:10112000280005F02BFA0426237C3343237428007F
:1011300005F024FA0127237C3B432374280005F0A3
:101140001DFA237A802252429046134323722800CC
:1011500005F014FA237A524613432372280005F04F
:101160000DFA10239A46237A52461343237228001D
:1011700005F004FA237A33432372280005F0FEF9C0
:101180000226237A33432372280005F0F7F92378E7
:10119000424613432370280005F0F0F923785A469D
:1011A00013432370280005F0E9F9237852461343CE
:1011B0002370280005F0E2F923784A461343237090
:1011C000280005F0DBF923783B432370280005F065
:1011D000D5F9237833432370280005F0CFF96378DD
:1011E0003B436370280005F0C9F9637833436370AB
:1011F000280005F0C3F9A3783B43A370280005F04D
:10120000BDF9A3783343A370280005F0B7F9E3785C
:101210003B43E370280005F0B1F9E3783343E37012
:10122000280005F0ABF923793B432371280005F032
:10123000A5F9237933432371280005F09FF96379D9
:101240003B436371280005F099F963793343637177
:10125000280005F093F9A3793B43A371280005F01A
:101260008DF9A3793343A371280005F087F9E37959
:101270001F43E771280005F081F9E3791E43E67109
:101280009620C00005F07AF9002410E0124D2B786A
:10129000242213432B70C82005F070F92B782422E8
:1012A00093432B70C82005F069F90134E4B2042C93
:1012B000ECD9C820400005F061F90023F72B05D8D0
:1012C000054A0021D1540133DBB2F7E7F0BCBB463D
:1012D000B246A946A046F8BD501900208A02000077
:1012E000F0B5C64600B5B2B0804600200BE0C200A3
:1012F00002A98C4662440021D1540133DBB2072B92
:10130000F5D90130C0B2172801D80023F7E705F05E
:1013100091F9009001911AE0FF231C401840E3006E
:1013200002AA944663441B5C002B3DD101221300AA
:1013300083409C4627490B5D65462B430B55E400D3
:1013400002AB9C4664442254022005F017F905F0D4
:1013500071F943465A01D21A93019B1ADB004344A8
:101360009B011E00DF17009A019B92197B418B4263
:1013700027D908F069FC182107F06EF80C00CDB2EF
:10138000002DF6D0082DF4D0102DF2D008F05CFC22
:10139000C217520F801807231840801AC3B2082DB5
:1013A000BAD8012BB8D8D2E70122824009490B5D97
:1013B00093430B55E40002AB9C4664440023235442
:1013C000C2E78B4201D18242D3D832B080BCB8464A
:1013D000F0BDC046501900200023012201E0520058
:1013E000D2B2002A07D05B00DBB21042F7D0012155
:1013F0000B43DBB2F3E7D80870470000F0B5DE46D8
:1014000057464E464546E0B583B00090012817D9AF
:10141000009BDA08934607271F40002900D120319E
:101420000B001E3BDBB2632B0DD81E398AB2D300F2
:101430009B1A9BB29A462B4B5B5C0193012417E0ED
:1014400002230093E4E73F39264B5B5C0193E723DB
:101450009A46F3E753461B19013B5A46D5006519D6
:10146000214AD05CFFF7B8FF204B58550134E4B255
:10147000072C2CD8002FEDD05B46DD002D191B4B1F
:1014800099465A570826F61BFF23334113405BB297
:10149000984653461B19013B134AD05CFFF79CFF4B
:1014A0000300BB40424613434A465355009BEF2B73
:1014B000DCD85B465A1CD200A2180C498D56FF237B
:1014C000B3402B405BB2304118438854CEE70198BB
:1014D000009B9C46604403B0F0BCBB46B246A946A4
:1014E000A046F0BDF80E00203C0C00205019002052
:1014F000F0B5012720E0DA00B2181548815C4908F0
:1015000081540133DBB21E2B0DD81D2BF3D8DA002A
:10151000B2180F4CA05C11000831655CED01410868
:101520002943A154EDE70A4A935703218B436146AF
:101530000B4393550137FFB2072F07D83E00044BEA
:10154000DB5D03221A4094460023DCE7F0BDC04671
:101550005019002010B5134B1B78FF2B04D0124BF1
:101560001B785A2B05D010BD0F4A13780133137026
:10157000F5E70E4B1B78002B09D0FFF7B9FF0B4A9C
:101580001378013B1370084B00221A70EBE72021FF
:101590001820FFF711F9034B00221A70044BFF3299
:1015A0001A70F0E7462B00205B2B0020572B002001
:1015B000502B0020114B1B78002B04D0104A1178BF
:1015C0005A1E914213D0002B03D10D4B1B784A2B8E
:1015D0000FD00B4A13780B49C8540133DBB2137098
:1015E0004A2B08D9130000221A70002004E04B2077
:1015F00002E04B2000E000207047C046592B00203D
:10160000582B0020841A0020F8B504000E00244B4B
:101610001B78032B01D1002419E00020FFF730F9DB
:10162000002C04D11F4B01221A70002431E01D4B05
:101630001C70FAE71B4D28782021FFF7DFFEC0B2AF
:1016400028702021FFF7DAFE28700134A4B2012CA3
:10165000EBD8144B1B78EE2BECD9E120C00004F042
:101660008DFFE7E7104804F089FF0E4B1878F1284A
:10167000F8D80130C0B21D001870F15DFFF7BEFE52
:101680002870074B03221A70084BFC321A70013481
:10169000A4B22700300008F035FB8442E5D3F8BD42
:1016A000372B0020572B002018150000462B002058
:1016B0000A4B1A780A4B1B789A420DD0094AD05C23
:1016C000AA21D1540133DBB2054A13704A2B02D947
:1016D000130000221A7070473220FCE7582B0020BC
:1016E000592B0020841A0020F0B5C64600B5CCB0B6
:1016F000954B1A78954B1B789A4200D11FE1934B7A
:101700001A78914B1B789A4200D118E1FFF7D0FF6D
:1017100004002E2545438E482D1804358D49280098
:1017200008F0ACFA00280ED0312C0DD82900182072
:10173000FFF76AFF02E0642004F020FF864B1B786D
:10174000002BF8D1DBE7FF240D34E3B20C2B00D9DA
:10175000F5E09C00814B1B599F4603F0EFFC804B4A
:101760001B78002B20D07F4A7F498B7A9846487A95
:101770000C7ACD797A494979002917D0794E7A497E
:101780004F7B0B7BC97A06910593049703960295CC
:1017900001940090434675490EA806F005FE0EA977
:1017A0001820FFF731FFAAE7714ADDE7704EE6E740
:1017B000704B1B78012B10D0022BA0D1FFF7E2F861
:1017C00002000EAC6C49200006F0EEFD1F23637290
:1017D00021001820FFF718FF91E7FFF7D3F8020068
:1017E00066490EA806F0E0FD0EA91820FFF70CFFD1
:1017F00085E70EA8FFF744F90EA91820FFF704FFAC
:101800007DE75F4A5F4B1B78D35C5F490978515C89
:10181000584A127800915D490EA806F0C5FD0EA940
:101820000F20FFF7F1FE6AE7524B1B78012B12D015
:10183000022B00D063E70EA9554B0A0031CB31C211
:1018400031CB31C21B6813601F23CB724B7618203B
:10185000FFF7DAFE53E74F491820FFF7D5FE4EE7B2
:101860004D4A4E490EA806F09FFD0EA91820FFF71D
:10187000CBFE44E70EA8FFF745FA0EA91820FFF7A4
:10188000C3FE3CE709A808F0A9F90EAA444B03CB14
:1018900003C21B881380002401E00134E4B2072C4A
:1018A00017D80EA808F02EFA0EAB9C46604409AB80
:1018B0001A5D3C4906F078FDE307EED50EA808F066
:1018C00021FA0EAB9C4660440222374907F0A8FD7E
:1018D000E3E70EA91820FFF797FE10E71A4B1A78D6
:1018E0001A4B1C78A2420ED1230030490EA806F0F4
:1018F0005BFD0EA91820FFF787FE00E7124B1B784F
:101900009C4200D1FBE62A4B1B5D0F4A12780093E4
:10191000230028490EA806F047FD0EA91820FFF75E
:1019200073FE0134E4B24A2CE8D90024E6E70BA8A0
:10193000FFF780FA0BA91820FFF766FEDFE64CB030
:1019400080BCB846F0BDC046582B0020592B002063
:1019500040030020849F0010572B00200CA1001092
:1019600034190020809F0010401900208C9F001027
:101970007C9F00106E100020F89F001008A000103F
:10198000641A00202C120020331200201CA000102A
:1019900068A0001044A0001084A000108CA00010CB
:1019A000B4A00010C0A00010BCA00010C8A000107F
:1019B000841A0020F4A000100A2820D88000784B58
:1019C0001B589F46774B1A7818210A43D2B21A70D7
:1019D0003F210A401A701A7A39398A431A722A3119
:1019E0008A431A724F310A401A721A7C7E398A432E
:1019F0001A740B318A431A7454318A431A7470472B
:101A0000684B1A7818218A431A7058390A431A7099
:101A10001A7A46318A431A722A318A431A724F312E
:101A20000A401A721A7C7E398A431A740B318A432F
:101A30001A7454318A431A74E1E75A4B1A78182100
:101A40008A431A7027310A401A701A7A06210A430B
:101A5000D2B21A7230218A431A724F310A401A7276
:101A60001A7C7E398A431A740B318A431A745431B2
:101A70008A431A74C3E74B4B1A7818218A431A70A9
:101A800027310A401A701A7A39398A431A7230217A
:101A90000A43D2B21A727F210A401A721A7C7E3926
:101AA0008A431A740B318A431A7454318A431A7464
:101AB000A5E73C4B1A7818218A431A7027310A404F
:101AC0001A701A7A39398A431A722A318A431A7279
:101AD000B0390A431A721A7C01210A43D2B21A742D
:101AE0000C218A431A7454318A431A7487E72D4BA8
:101AF0001A7818218A431A7027310A401A701A7A04
:101B000039398A431A722A318A431A724F310A408C
:101B10001A721A7C7E398A431A740C210A43D2B293
:101B20001A7460218A431A7469E71E4B1A781821C7
:101B30008A431A7027310A401A701A7A39398A434F
:101B40001A722A318A431A724F310A401A721A7C69
:101B50007E398A431A740B318A431A7460210A430E
:101B60001A744CE70F4B1A7818218A431A702731E0
:101B70000A401A701A7A39398A431A722A318A430A
:101B80001A724F310A401A721A7C7E398A431A74CB
:101B90000B318A431A7454318A431A742FE7C046B2
:101BA00040A100105019002010B54F4B1A784F4B30
:101BB0001B789A4208D04E490B8801339BB20B80A8
:101BC000FA2149008B4204D04A4B1B78042B36D0B3
:101BD00010BD474B0021198047498B5CDB43DBB2CA
:101BE0008B544649097802291DD003291FD00129A9
:101BF00015D0404909780129E6D1052AE4D1002B06
:101C000019D03F4B1A7893009A183E4B9B181B79BA
:101C10000F2018400138C0B2FFF7CEFED4E73A4992
:101C2000FF200870E5E73949FF200870E1E73849EF
:101C3000FF200870DDE70A20FFF7BEFEC4E7354A43
:101C4000138801339BB21380FA225200934215D0BD
:101C5000304B1A88FA239B009A42B9D12E4808F0DB
:101C600083F82E4B1B78132B2CD82D4AD37A1021B6
:101C70000B43D372274B00221A80A9E7264808F0AD
:101C800073F8264B1B78132B08D8254BDA7A1021D2
:101C90008A43DA725A7B0A435A73D9E7272B08D84A
:101CA0001F4B5A7B10218A435A73DA7A0A43DA723D
:101CB000CEE71B4BDA7A10218A43DA725A7B8A43C9
:101CC0005A73C5E7272B05D8154A537B10210B43C0
:101CD0005373CFE7124B1020D97A0143D9725A7B44
:101CE00002435A73C6E7C0465E2B0020562B0020E5
:101CF000242B0020372B0020581000205D2B0020C3
:101D0000362B002034190020472B0020482B0020C0
:101D1000492B0020222B0020D01A00205C2B002011
:101D200050190020002307E04008D022120680212D
:101D3000C90051610133DBB2072B0DD8D022120646
:101D40008021C9009161802109019161C207EBD511
:101D5000D02212065161E7E77047000070B5554B7D
:101D60001B78FF2B1FD0534B1B78FF2B26D0514BDA
:101D70001B78FF2B2DD04F4B1B78FF2B46D04D4BA4
:101D80001B78FF2B5FD04C4B1B784C4AFF21D15462
:101D900000234B4A13704B4A1370464A13704A4B48
:101DA0001A78130072E0494B1B78494AD35CFF2B29
:101DB000D9D1484B187803F0F3FAD4E7464B1B7897
:101DC000434AD35CFF2BD2D1444B187803F0FEFA80
:101DD000CDE7434B1B783E4AD35CFF2BCBD1414C24
:101DE000207803F013FB404E327821783F4D28884D
:101DF000FFF758F803F0BEFA327821782888FFF709
:101E000051F80138C0B2FFF7D7FDB4E7384B1B7863
:101E10002F4AD35CFF2BB2D1334C207803F094FAD5
:101E20002278304E3178314D2888FFF73BF803F0A7
:101E3000A1FA227831782888FFF734F80138C0B247
:101E4000FFF7BAFD9BE72B4B1B78214AD35CFF2B96
:101E500099D1294B187803F0EFFA234E3278214DAF
:101E60002978224C2088FFF71DF803F083FA327896
:101E700029782088FFF716F80138C0B2FFF79CFDDB
:101E800081E71E490020C8540133DBB2052BF8D985
:101E9000130004E00E490020C8540133DBB2122BBA
:101EA000F8D904E0164B002199540132D2B2042A29
:101EB000F8D970BD4C2B00205E2B0020581000205C
:101EC000512B00204E2B0020562B00202E120020DC
:101ED000641A00203A2B0020321200203C2B0020F4
:101EE000331200203D2B0020382B0020342B002003
:101EF0002C1200203A1200203E2B00205C1A0020F9
:101F0000781A00200023084A1370084A1370084A00
:101F10001370084A1370084A1370084A1370084B6C
:101F2000FF221A707047C0465A2B00205D2B0020FC
:101F3000432B0020472B0020482B0020492B00205A
:101F4000502B002070B584B0A24B01221A70A24B16
:101F50001A78531EDBB2012B30D99F4B1A78D31E4F
:101F6000DBB2012B73D99C4B1B78052B00D10DE103
:101F7000052B00D82BE1994B1B78002B04D1984BF3
:101F80001B78FF2B00D105E1944B1B78012B00D16E
:101F90000AE10023934A1370934A1370934A137013
:101FA000934AFF211170934A1370934A1370934A16
:101FB0001370934B1B78884A137006E1012A2ED0C8
:101FC000022A30D041210020FEF7F6FB834B1B781C
:101FD000002B2CD18B4B5B78312119400520FEF76B
:101FE000EBFB3A210A20FEF7E7FB864B9B7830217A
:101FF00019400D20FEF7E0FB784B1A7893009B18F0
:10200000774A9B5CFF2B1AD07E4B9B784621194068
:102010001220FEF7D1FB1A20FEF732FC9DE77A4B27
:10202000FF215970CCE7784BFD329A70CAE7754BA7
:102030005B78322119400520FEF7BEFBD1E7714BDA
:102040009B784E2119401220FEF7B6FBE3E7032AE6
:102050005CD0042A5ED06D4B1B78002B5ED05F4BAA
:102060001A7893009A185E4B9B18DC78674B1B78A4
:10207000002B02D1092C00D87EE00A21200006F0B6
:1020800013FA030030335BB25E4A03215156194004
:10209000C9B20020FEF790FB0A21200006F004FAE6
:1020A00030314BB2574C032161561940C9B205205B
:1020B000FEF782FB3A210A20FEF77EFB484D474E91
:1020C000327893009B18EB1898780A2106F0ECF907
:1020D000303040B2042161560140C9B20D20FEF7F4
:1020E0006BFB327893009B18ED18A8780A2106F054
:1020F000DBF930314BB2042161561940C9B21220CC
:10210000FEF75AFB1A20FEF7BBFB2CE73E4BFF21E4
:10211000D9709EE73C4BFB321A719CE70F256D444A
:102120002E4B1A7893009A182D4B9B18D8780E22B4
:102130006A442900FEF708F904002B78FF2B0FD022
:10214000334A137901218B4313710E236B441B789F
:10215000FF2B0BD02E4A137902218B43137185E795
:102160002B4A137901210B431371EEE7284A1379A7
:1021700002210B43137179E7264B1B78214AD35C6C
:10218000202119400020FEF717FB85E71E4AFF219A
:102190005171EDE61249CB788A78097900910021D6
:1021A000012003F009F8EFE60D4B5B79FF2B00D01F
:1021B000EFE60B4B5A7A197AD87903F081F8E8E602
:1021C000114A0021D1540133DBB2052BF8D904B0F8
:1021D00070BDC046372B00205E2B0020362B002020
:1021E00034190020472B0020432B00204E2B0020C9
:1021F000502B0020512B00205A2B00205D2B00205B
:10220000562B0020581000205C1A0020D812002005
:10221000501900202E12002010B5594B5B78FF2B6F
:1022200011D0574B9B78FF2B19D0554BDB78FF2BE8
:1022300042D0534B1B79FF2B5ED0514B5B79FF2B68
:1022400000D17BE010BD4F4B1B78002B03D14D4BD1
:1022500001221A70E5E74B4B00221A70E1E7494B67
:102260001B789A00D2184849525CFF2A0CD09A0079
:10227000D2184549FF245454002B17D1434A5378B0
:1022800001210B435370D0E79A00D2180024545414
:10229000002B05D13D4A537801218B435370C4E78D
:1022A0003A4A537802218B435370BEE7374A53783A
:1022B00002210B435370B8E7FF280ED0314B197839
:1022C0008B005B18304AD218D378013BDBB2D37055
:1022D000FF2BAED11723D370ABE72A4B19788B00B5
:1022E0005B18294AD218D3780133DBB2D370182B8C
:1022F0009FD10023D3709CE7FF280FD0214B197882
:102300008B005B18204AD2189378013BDBB29370A4
:10231000FF2B00D091E73B2393708EE7194B197880
:102320008B005B18184AD21893780133DBB2937094
:102330003C2B00D081E7002393707EE7FF280FD06D
:10234000104B19788B005B180F4AD2181379013B98
:10235000DBB21371002B00D074E70723137171E710
:10236000084B19788B005B18074AD2181379013390
:10237000DBB21371082B00D064E70123137161E70E
:102380005C1A0020362B0020341900205019002040
:1023900070B584B0B74B1A78B74B1B789A4201D10D
:1023A00000F08CFEB54B02221A70B54C684602F064
:1023B000D9FE07226946200007F032F822787F23F1
:1023C0001A402270627813406370A0783F2318404F
:1023D000A070E17807220A40E2702279134023714D
:1023E00062791F2313406371A24B1B78A54A1278B0
:1023F000934203D0A44909788B425BD1934200D128
:10240000E4E09C4B1A78A04B1B789A4200D1ECE098
:102410009E4B1B78002B00D1F8E09D4B1A789D4B0A
:102420001A709A4B1B78002B04D19A4B1B78092BFE
:1024300000D815E1974B18780A2106F035F83030AE
:1024400040B2904B1B78944AD1560140C9B200204B
:10245000FEF7B2F98F4B18780A2106F025F83031D3
:102460004BB28D4C874A1278A1561940C9B205204B
:10247000FEF7A2F93A210A20FEF79EF9874E30783E
:102480000A2106F011F8303040B27F4D2B78E1562A
:102490000140C9B20C20FEF78FF930780A2106F00E
:1024A00003F830314BB22A78A1561940C9B2112035
:1024B000FEF782F96F4B1D78794B1C78A54200D14D
:1024C00020E1784B1B789D4200D11BE1694B1A78C3
:1024D000754B1B789A4200D1B9E1664B1A78734B61
:1024E0001B789A4200D1F1E1624B1A78704B1B784D
:1024F0009A4200D117E25F4B1A786E4B1B789A42D2
:1025000000D145E25B4B1A786B4B1B789A4200D1A5
:1025100071E2584B1A78694B1B789A4200D197E2C6
:10252000544B1A78664B1B789A4200D1EAE2514B21
:102530001A78644B1B789A4200D12DE34D4B1A78E0
:10254000614B1B789A4200D17AE34A4B1A785F4B71
:102550001B789A4200D1D5E3464B1A785C4B1B7826
:102560009A4201D100F031FC424B1A78594B1B784A
:102570009A4201D100F0BEFC3E4B1A78564B1B78B4
:102580009A4201D100F019FD3A4B1A78534B1B784F
:102590009A4201D100F074FD364B1B78122B01D802
:1025A00000F08CFD00224E4B1A704E4B1A70324BCD
:1025B0001B7830490B704C490A704C490A704C49E1
:1025C0000A704C4AFF21117000F076FD4A4B9B5C6B
:1025D000002B05D02B4B1B78474AFF21D15410E725
:1025E00002F01AFD2A4B1870F4E7434AD35C002B23
:1025F00005D0254B1B78404AFF21D15408E7204BDA
:10260000587802F009FD3D4B1870F2E70F246C4436
:102610001F4B18780E226A442100FDF795FE1D4BD2
:1026200018702378FF2B0FD0354A137901218B4383
:1026300013710E236B441B78FF2B0BD0304A137998
:1026400002218B431371ECE62D4A137901210B43D0
:102650001371EEE72A4A137902210B431371E0E666
:10266000084B1B780C4AD35C202119400020FEF750
:10267000A3F8EFE65E2B0020562B0020372B00201E
:102680005C2700202E12002032120020D8120020D9
:102690003A2B0020392B0020581000203B2B002023
:1026A0002C120020331200203A1200202D1200209C
:1026B0003012002037120020381200203112002082
:1026C000391200202F1200202B1200202A12002085
:1026D000341200203612002035120020291200206A
:1026E000512B00205D2B0020432B0020482B002085
:1026F0004E2B0020502B0020641A00203C2B002081
:1027000050190020E54B187864234343E44A1078BD
:10271000C01880B2E34B1880E34B1E783100FEF7FF
:1027200083FAE24B1B78834201D9E04B1870A54233
:1027300048D0DF4B1A78DF4BFF21995400221A55FD
:10274000DD4B1B78022B45D00A21300005F0ACFE92
:10275000303040B2D94CD64D2B78E1560140C9B249
:102760000020FEF729F8D04B18780A2105F09CFECE
:1027700030314BB22A78A1561940C9B20520FEF774
:102780001BF82D210A20FEF717F8C84E30780A21D1
:1027900005F08AFE303040B2C94D2B78E156014039
:1027A000C9B20D20FEF708F830780A2105F07CFE4A
:1027B00030314BB22A78A1561940C9B21220FDF728
:1027C000FBFF83E6BB4BFF221A55B94A1278002162
:1027D0009954B5E7B54E30780A2105F065FE3030E2
:1027E00040B2B64D29570140C9B20020FDF7E4FFC1
:1027F00030780A2105F058FE30314BB2B04A1278D9
:10280000A9561940C9B20520FDF7D6FF2D210A208F
:10281000FDF7D2FFA44E30780A2105F045FE303096
:1028200040B2A34C2378E9560140C9B20D20FDF710
:10283000C3FF30780A2105F037FE30314BB22278E1
:10284000A9561940C9B21220FDF7B6FF3EE6994AD3
:10285000FF21D154914C207864224243904E33782A
:102860009B18904A1380F53905F01EFE01003031A7
:10287000C9B20020FDF7A0FF20780A2105F014FE60
:102880003031C9B20520FDF797FF30780A2105F0F5
:102890000BFE303040B2894C8A4D2B78E156014016
:1028A000C9B20A20FDF788FF30780A2105F0FCFD47
:1028B00030314BB22A78A1561940C9B20F20FDF72A
:1028C0007BFF20211720FDF777FF06E6794AFF21DD
:1028D000D1540020FDF7D4FF44210220FEF78EFDE5
:1028E00053210820FEF78AFD54210E20FEF786FDB5
:1028F000754B1B78012B0CD0744B1B786F4AD35C43
:10290000302119401220FDF757FF1A20FDF7B8FFBC
:10291000EAE56E4B1B78694AD35C312119401220DD
:10292000FDF74AFFF1E7FF226249CA54684B1A706B
:1029300042210020FDF740FF50210520FDF73CFF1C
:102940003A210A20FDF738FF624B1B785B4AD35CC3
:10295000302119400C20FDF72FFF5F4B1B78FF2B18
:102960000CD05C4B1B78554AD35C46211940112092
:10297000FDF722FF1A20FDF783FFBCE5554B1B78BE
:102980004E4AD35C4E2119401120FDF715FFF1E7A7
:10299000484AFF21D154BB390020FDF70DFF5321D8
:1029A0000520FDF709FF3A210A20FDF705FF4B4BF3
:1029B0001B78424AD35C302119400C20FDF7FCFE05
:1029C000474B1B78FF2B0CD0444B1B783B4AD35C06
:1029D000462119401120FDF7EFFE1A20FDF750FFA8
:1029E00090E53E4B1B78354AD35C4E2119401120AF
:1029F000FDF7E2FEF1E72F4AFF21D1540020FDF759
:102A00003FFF54210220FEF7F9FC55210820FEF774
:102A1000F5FC3A210C20FDF7CFFE324B1B78002B42
:102A20000CD1314B1B78254AD15C7F23994311206F
:102A3000FEF7E4FC1A20FDF723FF6AE52A4B1B781A
:102A40001E4AD15C7E2399431120FEF7D7FCF1E7A3
:102A5000184AFF21D1540020FDF712FF4C2102201B
:102A6000FEF7CCFC47210720FEF7C8FC3A210B20DB
:102A7000FDF7A2FE104B1B78022B39D0032B08D098
:102A80001A4B1B780D4AD35C452119400F20FEF7E5
:102A9000B5FC1A20FDF7F4FE42E5C046600F0020A9
:102AA0003E2B0020342B00203D2B0020382B002013
:102AB00033120020641A00206E10002058100020ED
:102AC0002C1200203A1200203F2B00202D12002053
:102AD0004E2B002030120020442B00203712002003
:102AE0006C1000205F2B00203812002031120020D3
:102AF000DC4B1B78DC4AD35C462119400F20FEF7E3
:102B00007DFCC6E7D94AD35C002B28D0D84B1B7874
:102B1000D64AFF21D154B7390020FDF74DFE44219C
:102B20000520FDF749FE3A210A20FDF745FED14B6D
:102B30001B78FF2B1FD0CC4CCD4D2B78E35C312183
:102B400019400C20FDF738FE2B78E35C3221194048
:102B50001120FDF731FE1720FDF792FEE7E4C64C89
:102B6000A07802F059FAC54B1870607802F054FA58
:102B7000C34B1870CAE7BC4CBD4D2B78E35C3221C7
:102B800019400C20FDF718FE2B78E35C3421194026
:102B90001120FDF711FEDEE7B44AFF21D154B73909
:102BA0000020FDF709FE43210520FDF705FE3A212F
:102BB0000A20FDF701FEB34B1B78AB4AD35C3021F2
:102BC00019400C20FDF7F8FDAF4B1B78002B07D008
:102BD000012B14D0022B21D01A20FDF751FEADE4B9
:102BE000A84B1B78A04AD35C462119401120FDF761
:102BF000E3FDA64A937903218B439371ECE7A14B44
:102C00001B78994AD35C4E2119401120FDF7D4FD61
:102C10009E4A937903210B439371DDE7994B1B780F
:102C2000914AD35C492119401220FDF7C5FD974A0E
:102C3000937903218B43937101210B439371CBE76C
:102C40008A4AFF21D154B0390020FDF7B5FD4E214D
:102C50000520FDF7B1FD3A210A20FDF7ADFD854BBA
:102C60001B78002B24D08A4B1A788A4B1A70894E15
:102C700030780A2105F018FC303040B27A4C864D8D
:102C80002B78E1560140C9B20C20FDF795FD307854
:102C90000A2105F009FC30314BB22A78A1561940BF
:102CA000C9B21120FDF788FD1A20FDF7E9FD4CE4BB
:102CB0000F246C44764B18780E226A442100FDF7ED
:102CC00043FB744B18702378FF2B0FD06F4A137996
:102CD00001218B4313710E236B441B78FF2B0BD008
:102CE0006A4A137902218B431371C0E7674A13794B
:102CF00001210B431371EEE7644A137902210B4360
:102D00001371B4E7594AFF21D154B0390020FDF7BF
:102D100053FD46210520FDF74FFD3A210A20FDF71E
:102D20004BFD544B1B78002B25D05C4B1A785C4B29
:102D30001A705B4E30780A2105F0B6FB303040B295
:102D4000494C584D2B78E1560140C9B20C20FDF793
:102D500033FD30780A2105F0A7FB30314BB22A78D9
:102D6000A1561940C9B21120FDF726FD1A20FDF722
:102D700087FDFFF7F1FB0F246C44484B18780E22B7
:102D80006A442100FDF7E0FA454B18702378FF2BC9
:102D90000FD03E4A137901218B4313710E236B44EC
:102DA0001B78FF2B0BD0394A137902218B43137107
:102DB000BFE7364A137901210B431371EEE7334A1B
:102DC000137902210B431371B3E7284AFF21D15431
:102DD0000020FDF755FD4E210220FEF70FFB4C2190
:102DE0000820FEF70BFB3A210B20FDF7E5FC2E4BEC
:102DF0001B78002B0AD0012B1ED0022B58D0032B9E
:102E000067D01A20FDF73CFDFFF7AEFB164C274DAF
:102E10002B78E35C4F2119400D20FDF7CDFC2B787A
:102E2000E35C462119401220FDF7C6FC174A1378CF
:102E300024218B431370E4E70B4C1C4D2B78E35C8F
:102E40004F2119400D20FDF7B7FC2B78E35C4E2194
:102E500019401220FDF7B0FC0C4A137824210B43D3
:102E60001370CEE73112002058100020641A0020A1
:102E700039120020D81200205C2700203A2B0020B5
:102E80003B2B00202F1200206D1000205019002035
:102E90005E0F00205F0F00202B1200205C0F00202F
:102EA0005D0F00202A12002026120020341200207C
:102EB000834C844D2B78E35C4F2119400D20FDF7A6
:102EC0007BFC2B78E35C492119401220FDF774FC50
:102ED00097E77B4C7B4D2B78E35C412119400D201B
:102EE000FDF76AFC2B78E35C552119401220FDF7B1
:102EF00063FC86E7744AFF21D154B0390020FDF706
:102F00005BFC4E210520FDF757FC3A210A20FDF716
:102F100053FC6E4B1B78002B25D06D4B1A786D4BF4
:102F20001A706C4E30780A2105F0BEFA303040B28B
:102F3000634C694D2B78E1560140C9B20C20FDF776
:102F40003BFC30780A2105F0AFFA30314BB22A78D9
:102F5000A1561940C9B21120FDF72EFC1A20FDF729
:102F60008FFCFFF709FB0F246C44594B18780E2295
:102F70006A442100FDF7E8F9564B18702378FF2BBF
:102F80000FD0564A137901218B4313710E236B44E2
:102F90001B78FF2B0BD0514A137902218B431371FD
:102FA000BFE74E4A137901210B431371EEE74B4AF9
:102FB000137902210B431371B3E7434AFF21D15424
:102FC000B0390020FDF7F8FB46210520FDF7F4FBA2
:102FD0003A210A20FDF7F0FB3C4B1B78002B25D053
:102FE0003F4B1A783F4B1A703E4E30780A2105F05D
:102FF0005BFA303040B2324C3B4D2B78E156014009
:10300000C9B20C20FDF7D8FB30780A2105F04CFA44
:1030100030314BB22A78A1561940C9B21120FDF7C0
:10302000CBFB1A20FDF72CFCFFF7AEFA0F246C4403
:103030002B4B18780E226A442100FDF785F9294BA5
:1030400018702378FF2B0FD0244A137901218B436A
:1030500013710E236B441B78FF2B0BD01F4A13797F
:1030600002218B431371BFE71C4A137901210B43E3
:103070001371EEE7194A137902210B431371B3E779
:10308000114AFF21D1540020FDF7FAFB4421022010
:10309000FEF7B4F949210820FEF7B0F94D210C20C4
:1030A000FEF7ACF91A20FDF7EBFBFFF775FA064ABD
:1030B0000021D1540133DBB2122BF8D904B070BD1A
:1030C0005810002034120020641A0020D81200206A
:1030D00028120020542B0020361200205019002006
:1030E00027120020532B00203512002030B583B06A
:1030F0000400CC4B1B78CC4AD35CFF2B00D178E08A
:10310000CA4B1B78C84AD35CFF2B00D191E0C84B57
:103110001B78C54AD35CFF2B00D1AAE0C54B1B78B6
:10312000C14AD35CFF2B00D1D3E0C34B1B78BE4A0E
:10313000D35CFF2B00D1FAE0C04B1B78BA4AD35CBA
:10314000FF2B00D118E1BE4B1B78B74AD35CFF2B95
:1031500000D12BE1BB4B1B78B34AD35CFF2B00D1D2
:1031600037E1B94B1B78B04AD35CFF2B00D14CE15F
:10317000B64B1B78AC4AD35CFF2B00D1A1E1B44B1A
:103180001B78A94AD35CFF2B00D1C6E1B14B1B7859
:10319000A54AD35CFF2B00D1FCE1AF4B1B78A24AC0
:1031A000D35CFF2B00D111E2AC4B1B789E4AD35C61
:1031B000FF2B00D124E2AA4B1B789B4AD35CFF2B48
:1031C00000D137E2A74B1B78974AD35CFF2B00D185
:1031D0004CE2A54B1B78944AD35CFF2B00D15FE2F5
:1031E000A24B1B78904AD35CFF2B00D172E203B054
:1031F00030BD9F4BFF221A70FF280BD09D4A1378D9
:10320000013BDBB21370FF2B0FD09A4B1A789A4B0D
:103210001A7075E7974A13780133DBB21370182BD5
:10322000F3D1130000221A70EFE7130017221A706F
:10323000EBE78F4BFF221A70FF2C0BD08F4A1378CD
:10324000013BDBB21370FF2B0FD08C4B1A788C4BE9
:103250001A705CE7894A13780133DBB213703C2B98
:10326000F3D1130000221A70EFE713003B221A700B
:10327000EBE77F4BFF221A70FF2C1FD0814A137897
:10328000013BDBB21370002B02D113000C221A7029
:103290007D4B1878642343437C4A1078C01880B271
:1032A0007B4B1880774B1978FDF7BEFC794B1B7868
:1032B000984200D332E7774B18702FE7714A1378A2
:1032C0000133DBB213700D2BE2D1130001221A700F
:1032D000DEE7674BFF221A706B4B18786423434379
:1032E0006A4A1078C01880B2694B1880FF2C0ED043
:1032F000684A1378013BDBB21370002B00D014E74F
:10330000604B1978FDF790FC624B18700DE7614B2C
:103310001D780135EDB21D705A4B1978FDF784FC0C
:10332000854200D801E75B4B01221A70FDE6504B45
:10333000FF221A70FF2C0FD0544A1378013BDBB2E6
:103340001370FF2B00D0F7E6130063221A704E4A69
:103350001378013B1370EFE64C4A13780133DBB26C
:103360001370642B00D0E7E6130000221A70464A5F
:10337000137801331370DFE6FF2C0BD0464A137825
:10338000013BDBB21370FF2B00D0DCE613000122FF
:103390001A70D8E6404A13780133DBB21370012B60
:1033A00000D8D0E6130000221A70CCE63B4B1B7805
:1033B000FF2B02D0FDF71CF8CCE6394B1B78FF2B16
:1033C00003D0374BFF221A70F4E7354B00221A70F6
:1033D000F0E7344A137859424B41DBB21370002BAB
:1033E00009D1314AD37802210B43DBB2D3700121DA
:1033F0008B43D370B5E62C4AD37801210B43DBB263
:10340000D37002218B43D370ABE6284B1B78002B83
:103410004ED1264BFF221A70234A137803210B4307
:103420001370A5E62E120020641A0020321200202C
:10343000331200202C1200203A1200202D120020FE
:1034400030120020381200203712002031120020E4
:10345000391200202F1200202B1200202A120020E7
:1034600034120020361200203512002029120020CC
:103470004C2B00203A2B0020392B00203C2B002025
:103480003B2B00203D2B0020600F00203E2B002016
:10349000342B0020382B00203F2B00204E2B002007
:1034A000442B00205F2B0020501900206C100020BE
:1034B000954B00221A70954A137803218B431370A1
:1034C00056E6FF2C17D0924A1378013BDBB21370FB
:1034D000002B02D1130002221A708D4B1B78022B95
:1034E00014D0012B00D04AE68A4B03221A708A4B73
:1034F00001321A7043E6864A13780133DBB2137047
:10350000022BEAD9130001221A70E6E7824A03214E
:103510001170804A01311170E3E7804B1B78002B5A
:103520000BD17E4BFF221A70784A137901218B430D
:10353000137101318B43137128E6784B00221A7006
:103540006B46DD1D764B18786B469A1D2900FCF7FB
:10355000FBFE744B18702B78FF2B0FD06B4A13793E
:1035600001218B4313716B4606331B78FF2B0BD065
:10357000664A137902218B43137107E6634A137974
:1035800001210B431371EEE7604A137902210B43CB
:103590001371FBE5FF2C0ED0002C00D0FDE5624A34
:1035A0001378013BDBB21370FF2B00D0F5E513005D
:1035B00002221A70F1E55C4A13780133DBB2137012
:1035C000022BE9D9130000221A70E5E7FF2C0BD07B
:1035D000564A1378013BDBB21370FF2B00D0E3E5B2
:1035E000130017221A70DFE5504A13780133DBB25B
:1035F0001370182B00D0D7E5130000221A70D3E502
:10360000FF2C0BD04A4A1378013BDBB21370FF2B1F
:1036100000D0D0E5130017221A70CCE5444A137885
:103620000133DBB21370182B00D0C4E51300002265
:103630001A70C0E5FF2C0ED0002C00D0C2E53D4A28
:103640001378013BDBB21370FF2B00D0BAE51300F7
:1036500003221A70B6E5374A13780133DBB21370D0
:10366000032BE9D9130000221A70E5E7FF2C0BD0D9
:10367000314A1378013BDBB21370FF2B00D0A8E571
:10368000130017221A70A4E52B4A13780133DBB21A
:103690001370182B00D09CE5130000221A7098E5D7
:1036A000FF2C0BD0254A1378013BDBB21370FF2BA4
:1036B00000D095E5130017221A7091E51F4A137880
:1036C0000133DBB21370182B00D089E51300002200
:1036D0001A7085E50020FDF7D3F8194B1B78FF2BF6
:1036E00008D0174BFF221A70084AD37903210B43E5
:1036F000D3717CE5124B00221A70044AD37903215E
:103700008B43D37173E5C0466C1000205019002024
:103710006E100020331200202C120020D81200203E
:103720003A2B0020392B00206D1000205E0F002066
:103730005C0F0020261200202812002027120020F3
:103740005410002070B5E24B07221A70E14B1B7831
:10375000012B23D0022B00D183E0032B7CD0042B40
:1037600000D167E1DC4B1B78022B00D1A2E10022E3
:10377000DA4B1A70DA4B1A70DA4B1A70DA4B1B7884
:10378000D4490B70D9490A70D9490A70D9490A70CD
:10379000D9490A70D94AFF211170CAE10020FDF70A
:1037A0006FF8D74BFF225A7054210220FDF726FEF6
:1037B0004D210820FDF722FEC74B1B78022B07D0B6
:1037C000012B1CD0002B31D01A20FDF759F8B2E1A3
:1037D000CC4C6378552119400D20FCF7EDFF637840
:1037E000502119401220FCF7E7FFC74B5A790321FB
:1037F0000A435A719A7803218A439A70E4E7C14CCC
:103800006378442119400D20FCF7D6FF63784E21E0
:1038100019401220FCF7D0FFBB4B9A7803210A43D2
:103820009A705A7903218A435A71CDE7B54C63786F
:10383000302119400D20FCF7BFFF63784621194065
:103840001220FCF7B9FFB04B9A7803218A439A7093
:103850005A798A435A71B7E79F4A1278002A00D1F1
:103860007DE7022B4CD0022B52D09A4B1B78032BB6
:1038700000D18FE0984B1B78012B00D196E0964B3E
:103880001B78022B00D056E1924B1B78032B00D003
:1038900051E19E4C20780A2104F006FE01003031EF
:1038A000C9B20020FCF788FF20780A2104F0FCFD53
:1038B0003031C9B20520FCF77FFF3A210A20FCF71E
:1038C0007BFF934C20780A2104F0EEFD010030319B
:1038D000C9B20C20FCF770FF20780A2104F0E4FD47
:1038E0003031C9B21120FCF767FF1A20FCF7C8FF7E
:1038F0000023884A1370884A1370884A13701AE1AB
:10390000754A1278012AAED17D4BFE329A70ACE72F
:10391000714B1B78022BA8D1804B1B78002B03D155
:103920007A4A13707A4A13706C4B00221A707B4BE0
:10393000FF321A70754C20780A2104F0B5FD0100A1
:103940003031C9B20020FCF737FF20780A2104F09B
:10395000ABFD3031C9B20520FCF72EFF3A210A2019
:10396000FCF72AFF6B4C20780A2104F09DFD010032
:103970003031C9B20C20FCF71FFF20780A2104F077
:1039800093FD3031C9B21120FCF716FF1A20FCF765
:1039900077FF6AE7504B1B78012B00D06AE7584B42
:1039A000FF22DA705E4B00221A7063E7574C2078D2
:1039B0000A2104F079FD030030335BB2514D02213E
:1039C00069561940C9B20020FCF7F6FE20780A219A
:1039D00004F06AFD30314BB2022169561940C9B278
:1039E0000520FCF7E9FE3A210A20FCF7E5FE484CE9
:1039F00020780A2104F058FD030030335BB2032124
:103A000069561940C9B20C20FCF7D6FE20780A216D
:103A100004F04AFD30314BB2032169561940C9B256
:103A20001120FCF7C9FE1A20FCF72AFF2278394B37
:103A30001A7024E7284B1B78012B00D092E6384BF4
:103A40001B78002B00D08DE6244B00221A70354BDA
:103A5000FF321A702D4C20780A2104F025FD010058
:103A60003031C9B20020FCF7A7FE20780A2104F00B
:103A70001BFD3031C9B20520FCF79EFE3A210A2019
:103A8000FCF79AFE234C20780A2104F00DFD01007A
:103A90003031C9B20C20FCF78FFE20780A2104F0E7
:103AA00003FD3031C9B21120FCF786FE1A20FCF765
:103AB000E7FE40E00023084A1370144A1370144ACA
:103AC0001370114A537903218B4353714FE6C0465B
:103AD000372B00205E2B0020612B0020512B002073
:103AE000692B00205A2B0020562B00205D2B002034
:103AF000492B0020432B00204E2B0020502B002070
:103B0000781A00205810002050190020602B002047
:103B1000622B0020642B0020632B00204B2B002005
:103B20004D2B00204A2B0020034A0021D1540133A1
:103B3000DBB2042BF8D970BD781A00202D4B5B78CE
:103B4000FF2B06D02C4B1B78012B1AD0012B34D025
:103B50007047FF280AD0284A1378013BDBB2137064
:103B6000FF2BEFD1130002221A70EBE7224A1378E1
:103B70000133DBB21370022BE4D9130000221A7058
:103B8000E0E71C4A9278FF2AE0D1FF280AD01B49BF
:103B90000A78013AD2B20A70FF2AD7D10A003B2133
:103BA0001170D3E715490A780132D2B20A703C2A63
:103BB000CCD10A0000211170C8E70E4BDB78FF2B37
:103BC000C6D1FF280AD00E4A1378013BDBB213702E
:103BD000FF2BBDD113003B221A70B9E7084A1378B6
:103BE0000133DBB213703C2BB2D1130000221A70E8
:103BF000AEE7C046781A0020612B0020602B002021
:103C0000622B002010B584B0FCF7DAFEFCF70CFC48
:103C1000FDF7CAFFFDF79EFCD0231B065B685B0720
:103C20002BD4C74A138801331380D0231B065B684B
:103C30009B0300D57EE0C34A138801331380D02351
:103C40001B065B681B0400D5DEE0BF4A1388013306
:103C50001380BE4A13780133DBB21370072B02D9ED
:103C6000130000221A70BA4802F0D0FBD0231B06C2
:103C7000802292015A61002434E1B14B1A8813006A
:103C8000333B9BB2F82B0DD996235B009A4205D9A2
:103C9000B04B1A78B04B1B789A4239D0A84B00220F
:103CA0001A80C2E7AD4B00221A70FCF7A1FBAC4BA7
:103CB0001B78022B18D0032B20D0012B0AD0A94B44
:103CC000FF221A70A64BFD3A1A70A24A13780133EC
:103CD0001370E3E7FEF742F8A34BFF221A709D4AE8
:103CE000137801331370D9E7FEF738F89D4BFF22A4
:103CF0001A70984A137801331370CFE7FEF72EF845
:103D00009A4BFF221A70934A137801331370C5E758
:103D1000924B00221A70FCF76BFBFEF71FF8924BD8
:103D2000FF221A708E4BFE3A1A708A4A13780133BA
:103D30001370B3E7834B1A881300333B9BB2F82B05
:103D40000DD996235B009A4205D9824B1A78824B93
:103D50001B789A423CD07B4B00221A806FE77F4B46
:103D600000221A70FCF744FB7D4B1B78022B18D005
:103D7000032B1FD0012B0BD07D4B1B7824221A4222
:103D800021D093437A4A1370F920FDF713FCE2E740
:103D9000FF20FEF741FAFDF7E1FF734BFF221A7097
:103DA000D9E7FF20FFF7A2F9FDF7D8FF6D4BFF22FF
:103DB0001A70D0E7FF20FFF7C1FEFDF7CFFF6B4B76
:103DC000FF221A70C7E724221343694A1370DBE706
:103DD000624B00221A70FCF70BFBFDF7BFFF604B34
:103DE0001B78013B022BB6D95A4B1B785A4A1278E2
:103DF0009342B0D15D4AFF211170594AFC391170CC
:103E00000133544A1370A6E74F4B1A88531E9BB2D6
:103E1000952149008B420DD996235B009A4205D922
:103E20004C4B1A784C4B1B789A4241D1464B00229E
:103E30001A800EE7494B00221A70FCF7D9FA484B5A
:103E40001B78022B19D0032B20D0012B0CD0494B0F
:103E50001B78FF2B23D0474BFF221A70444AD3799B
:103E600003210B43D371E1E70020FEF7D5F9FDF7FD
:103E700075FF3D4BFF221A70D8E70020FFF736F997
:103E8000FDF76CFF374BFF221A70CFE70020FFF7DA
:103E900055FEFDF763FF354BFF221A70C6E7354B21
:103EA00000221A70324AD37903218B43D371BDE7C4
:103EB00000242A4B1C70FCF79BFAFEF723F8FDF751
:103EC0004DFF274B1C70244B1A78224B1A70ADE71C
:103ED000E2001E4B1B789B18254AD05CFDF722FFA1
:103EE0000134E4B2032CF3D9D0231B068022520103
:103EF0005A619A61154B1B78DA073FD5D02212061A
:103F00008021490251619A073ED5D02212068021B4
:103F1000C90251615B073DD5D0231B068022D20325
:103F20005A6102F0DFF80A4B029300230193124B0F
:103F300000933222002302F01BFA012004B010BDCE
:103F4000322B0020262B00201E2B0020552B00207A
:103F5000001800205E2B0020562B0020512B002043
:103F60005D2B0020482B0020472B0020492B0020F0
:103F7000501900205410002099080010D022120679
:103F8000802149029161BEE7D02212068021C90238
:103F90009161BFE7D0231B068022D2039A61C0E75C
:103FA00070B584B0604C684601F0DCF807226946C1
:103FB000200005F035FA22787F231A4022706278BB
:103FC00013406370A0783F231840A070E178072267
:103FD0000A40E27022791340237162791F23134053
:103FE000637101F019F8514B1870607801F014F802
:103FF0004F4B1870207901F00FF84E4B1870607914
:1040000001F00AF84C4B1870A07901F005F84B4B01
:1040100018704B4B1B78002B0FD0444B1A78494B30
:104020001A70474B1B78002B31D1464B1B78092B5C
:104030002DD803AB20221A7031E00B246C443B4B8B
:1040400018780A226A442100FCF77EF93D4B18706B
:104050002378FF2B0FD03C4A137901218B43137136
:104060000A236B441B78FF2B0BD0374A13790221AC
:104070008B431371D5E7344A137901210B43137134
:10408000EEE7314A137902210B431371C9E72D4B37
:1040900018780A2104F008FA303003AB1870294B65
:1040A00018780A2104F000FA3031CDB203AB5D700C
:1040B0001D4A51780E0930369E700F240C40303462
:1040C000DC70107805F0B4F805F0E2F800221F4B20
:1040D00004F03FFC04F008FD1D4B18701D4B1B78CD
:1040E000002B07D0104BD8780138C0B2FDF764FC24
:1040F00004B070BD184B04221A7003AB197800206D
:10410000FCF75AFB29000520FCF756FB3A210A2050
:10411000FCF752FB31000C20FCF74EFB2100112074
:10412000FCF74AFBDEE7C0465C2700203A2B002064
:104130003B2B0020382B00203D2B00203E2B002065
:10414000D8120020392B0020501900200000F83F21
:104150005C2B0020462B0020372B002070B5D0248C
:1041600024068025ED01656102F008FAA56170BDA5
:1041700030B5A5B00D0014003749100005F07EFDE4
:10418000002807D11B23237040336370133BA370B7
:104190000023E3703149200005F070FD002809D1AB
:1041A0001B23237040336370293BA3701833E370E3
:1041B0000023237123782D2B03D00D2B01D01B2B33
:1041C00001D100253FE02A00254920A804F0ECF8A1
:1041D00000250BE0234B9B699B06FBD41078214BF9
:1041E0001860013101320029F4D0013520AB5B5D4C
:1041F000002B03D020AB5A190021F4E76846FCF7E6
:10420000BFF800250BE0174B9B699B06FBD4107889
:10421000144B1860013101320029F4D001356B468E
:104220005B5D002BCDD02A006A440021F4E70D4BE2
:104230009B699B06FBD410780A4B18600131013250
:104240000029F4D001356219635D002B01D00021F3
:10425000F6E725B030BDC0466CA1001074A1001077
:1042600078A1001000800340F0B5C64600B5D0B07C
:10427000974A1F231A21FF3153547E21FF31535493
:104280006039FF39AB2040001154924AE53813548D
:10429000193011547B3153548F4D002200232A6072
:1042A0006B608E4C012323808D4A1380853802F089
:1042B00025FF8C4B18608C4904F0F6F804F0B8FF29
:1042C000061C278804F0DCFFC4B2200004F0B6FF0F
:1042D000011C301C04F083FF8321C90504F09FFFFB
:1042E00004F0CEFFC0B224010443BB00DB199B00E5
:1042F0007E4A944663445C6002F09CF905F09AFCA7
:10430000FCF712FE7A4C04A800F02CFF072204A947
:10431000200005F085F822787F231A402270627809
:1043200013406370A0783F231840A070E178072203
:104330000A40E27022791340237162791F231340EF
:10434000637100F069FE6B4B1870607800F064FEDA
:10435000694B1870207900F05FFE684B1870607927
:1043600000F05AFE664B1870A07900F055FE654BC0
:1043700018702B686A68134306D1634A13782421A6
:104380000B431370002374E012AC604B1293604D2A
:10439000220060492800FFF7EBFE5F4B1A6812927B
:1043A0001B79237199212200C9002800FFF7E0FE44
:1043B000534B1A780A235343584A117882224A43AE
:1043C0009B18434A9B184D4A12784B490978029131
:1043D0004849097801914B490978009150492000DA
:1043E00003F0E2FF22004F492800FFF7C1FE4E4ACA
:1043F0004E492800FFF7BCFE002406E04C4A4D4918
:104400004348FFF7B5FE0134E4B23F2C26D8220022
:104410000123A340D817304D296819406D68284002
:104420000143F0D0022B0DD0042B11D0012BE5D08D
:10443000414912A803F0B8FF12AA40493448FFF7D7
:1044400097FEE0E73E4A3F493148FFF791FEDAE741
:104450003D4A3E492E48FFF78BFED4E73C4A3D4992
:104460002B48FFF785FE88E73B4AAA21D154013348
:10447000DBB24A2BF8D90023384A1370384A13703C
:1044800007E0384A98000021815212185180013308
:104490009BB2C82292009342F3D30023324A138086
:1044A000324A1380324B1A78130004E0314900205D
:1044B000C8540133DBB2052BF8D9130004E02E49B0
:1044C0000020C8540133DBB2122BF8D95BE0C046A0
:1044D000A01000203C120020F81700202A2B0020FA
:1044E000282B00205827002040420F0000000540E4
:1044F0005C2700203A2B00203B2B0020382B00208B
:104500003D2B00203E2B002050190020636C7300CF
:1045100000800340C50400006CA100106E10002054
:1045200080A10010CB040000DCA10010CD0400002D
:1045300000A20010D70400005CA20010E4040000F8
:1045400020A20010DB04000040A20010DF040000E5
:104550006CA20010E9040000841A0020582B0020EF
:10456000592B0020D81A00202E2B0020302B0020A1
:10457000562B00205C1A0020641A0020D84B002122
:1045800099540132D2B2042AF8D9D64B1B78022BA7
:1045900000D1C8E000F0D2FDD34B00241C70D34AF8
:1045A000907A0F2108401871507AD870107A98705C
:1045B000D07958705C71507B01405972117B19722F
:1045C000D27ADA7101220121C94801F001FA0CAB5B
:1045D0000022C8490120FBF799FEFA2006AB002211
:1045E000C5498000FBF792FE0A20FFF7B7FD642063
:1045F00001F0C4FF0A20FFF7B1FD642001F0BEFF07
:104600000A20FFF7ABFD642001F0B8FF0A20FFF796
:10461000A5FD9620400001F0B1FFFCF71DFD032031
:10462000FCF75EFE0020FCF72BF9B44B1B78012B46
:1046300000D17FE0B24AD17802230B43D37001212D
:104640008B43D370AF4B1B78012B00D180E0022B42
:1046500000D183E0002B75D0AB4B1B78FF2B00D132
:1046600085E0AA4B1B78012B00D186E00020FCF7E7
:1046700007F9A74AA74912A803F096FE12A9182025
:10468000FCF7C2FFA44A13685268134309D0954B44
:104690001B78012B00D107E1924B1B78022B00D134
:1046A00007E1F620FCF786FFFA20FCF783FFF320F2
:1046B000FCF780FFF720FCF77DFFD0231B060422C8
:1046C0009A62802292029A62802212029A620022E8
:1046D0000121022000F0DEFE00220121112000F065
:1046E000D9FE002201210F2000F0D4FE8B4B1B7855
:1046F000FF2B00D1E2E08A4B1B78FF2B00D1E6E0D4
:10470000884B1B78FF2B00D12CE1874B1B78FF2BAC
:1047100000D130E1854B1A78854B1B789A42E5D061
:10472000FCF7E2FFE2E7834B03221A70824B01326F
:104730001A702FE7724AD1780B43D37002218B4352
:10474000D3707FE76E4A937903218B43937183E79C
:104750006B4A917903230B4393717DE7684A937900
:1047600003218B43937102390B43937174E7644ABD
:104770001178FC3B0B43137073E7704B00221A70E7
:104780006F4C04A800F0EEFC072204A9200004F0FE
:1047900047FEA07800F040FC6A4B1870607800F08B
:1047A0003BFC694B1870207900F036FC674B1870A1
:1047B000607900F031FC664D2870A07900F02CFC87
:1047C00084B2FA23DB009C466444A4B2614B1C8093
:1047D0002F783B1FDBB2062B02D8584BFF221A70F2
:1047E000032F08D00B2F00D040E7584B1B7898467A
:1047F0001D00002633E0554B1B7898461D0000260F
:1048000001E0013DEDB2002D09D02A003900200061
:10481000FCF748FB0728F4D10136F6B2F1E7022E87
:1048200007D809D1424639002000FCF73BFB072896
:1048300002D0424BFF221A70022ED3D142463900D9
:104840002000FCF72FFB0728CCD13E4B1B78022B16
:10485000C8D93A4BFF221A70C4E7013DEDB2002DD2
:1048600009D02A0039002000FCF71CFB0728F4D1EE
:104870000136F6B2F1E7002E02D1304BFF221A705A
:10488000012E00D0F2E6424639002000FCF70AFB78
:10489000072800D0EAE62B4B1B78012B00D9E5E670
:1048A000264BFF221A70E1E62B491820FCF7ACFEDC
:1048B000F2E62A491820FCF7A7FEF2E6284BFF2271
:1048C0001A70FDF765FD154B00221A7013E7244B93
:1048D000FF221A70FDF736FB114B00221A700FE70A
:1048E000781A00206E100020341900204019002092
:1048F000D01A0020053C00109D4900105F2B0020BD
:10490000501900206D1000206C1000203F2B00205B
:1049100084A000108CA00010F8170020482B002065
:10492000472B0020492B0020502B0020582B002023
:10493000592B00202C12002033120020422B002083
:104940005C270020392B00203B2B0020382B002037
:104950003D2B0020342B002070A200109CA20010E0
:10496000432B0020094BFF221A70FEF7EBFE084B89
:1049700000221A70C9E6074B1B78002B00D0C9E64D
:10498000FFF70EFB044B00221A70C3E6432B0020F6
:10499000492B0020572B0020502B002030B5A3B00E
:1049A000B74A13780133DBB21370B64A1288002A73
:1049B00002D0013AB3490A80B34A1278FF2A51D093
:1049C0003C2B58D0B14B1B685B0700D5CEE0AD4BFC
:1049D0001B88002B0AD1AE4B1B78012B00D1FEE0C7
:1049E000022B00D1ECE0022B00D11AE1A44B1C7881
:1049F000002C0BD1A74B1D780521280003F054FD96
:104A0000C9B2002902D1002D00D01EE1052C00D131
:104A100016E1A14B1B78FF2B00D16FE19F4B1B7858
:104A2000FF2B00D1A6E19E4B1B78FF2B00D1EAE1C2
:104A3000934B1C78002C07D1964B1B780E2B00D182
:104A40002DE22C2B00D12AE2964B1B78022B00D1B1
:104A500057E2022B00D171E2032B00D18CE201203E
:104A600023B030BDD02212068021C9019161864A4F
:104A700000211170A4E7874A13780133DBB2137069
:104A80007F4A002111703C2B30D0834B1B78002BC8
:104A900006D1854B1B78002B02D1844BFF221A7064
:104AA000834B1B78FF2B46D0814B5B79FF2B00D0CB
:104AB00088E7804BDA787E4B5B7A9A4200D081E7B8
:104AC00000F0EEFA002800D17CE7FF236E4A137055
:104AD000D02212068021C9015161774A1370774BA9
:104AE00002221A70764B00221A706BE7694B002283
:104AF0001A70744A13780133DBB21370182B16D076
:104B0000714B00221A70614B1B685B07BDD50023F7
:104B100001936C4B1B78009300236C4902A803F0AF
:104B200043FC02AA6A496B48FFF722FBADE713007A
:104B300000221A70E4E75F4BDA785D4B1B799A42EA
:104B4000B2D100F081FA0028AED0FF234E4A137094
:104B5000D02212068021C9015161574A1370574B68
:104B600001221A70564B00221A709DE7494B1B78A0
:104B7000434A1278544909780191524909780091C1
:104B8000524902A803F010FC524C02AA52492000DC
:104B9000FFF7EEFA514B1B78514AD15C514B1B7811
:104BA0003B4A127801915049097800914F4902A877
:104BB00003F0FAFB02AA4E492000FFF7D9FA06E7F4
:104BC000484A1278484909788A4200D30BE73D48A1
:104BD0000078824200D906E7814200D203E72D4BDC
:104BE0001B78002B00D001E7374B1B78002B00D03F
:104BF000FCE63A4B1B783A4AD35C002B00D0F5E632
:104C0000D0231B068022D2015A61FF232A4A137047
:104C10002A4A032111702A4A002111702A4A13706E
:104C2000E4E6314B1B782F4A1278934200D3DDE63D
:104C3000244909788B42D2D98A4200D2D6E6CEE7FF
:104C4000144B1B78002B00D0E3E62A4B1B78FF2B7C
:104C500000D0DEE6284B1B78042B00D0D9E6FC20E0
:104C6000FCF7A8FCF420FCF7A5FCF920FCF7A2FC5B
:104C7000F720FCF79FFCF320FCF79CFCC9E6C0463C
:104C80005C2B00202C2B0020402B0020F81700204C
:104C90006D1000203B2B0020432B00204A2B0020CE
:104CA0004B2B0020261200205B2B0020502B0020D5
:104CB000341900205C2700204F2B0020682B002097
:104CC000662B00203A2B0020412B0020C8A20010A8
:104CD00039270000008003407727000032120020AF
:104CE000641A00205E0F00205C0F002004A3001057
:104CF000792700006C100020372B0020A94A137878
:104D00000133DBB21370142B00D087E6FDF7FAF8FD
:104D1000FDF724F8A44B1A78A44B1A70A44B1B7807
:104D2000002B05D19A00D218A249525CFF2A14D058
:104D30009F4B1B78002B00D170E69A00D2189D493A
:104D4000525CFF2A00D069E69A00D2188B181A79B3
:104D5000D978987800F0B4FA60E69900CB189549B4
:104D6000C918CB788A78097900910021012000F0D8
:104D700023FADDE7904B1B78002B1DD18F4A127868
:104D8000002A19D1D0231B068022D2015A61FF22AA
:104D90008B4B1A708B4B0621197000238A490B70BC
:104DA0008A490B708A490B708A4B1A708A4A937829
:104DB00003218B43937036E688490A7801320A70E2
:104DC000013BDBB27C4A1370FF2B18D07A4B1B7867
:104DD000002B0CD1794B1B78002B08D0013B774A74
:104DE0001370754B3B221A707D4B00221A707B4B5F
:104DF00000221A70704B1A78794B1A7013E6130060
:104E000000221A70E2E76C4A13780133DBB21370A8
:104E100072490A7801320A703C2B07D06F4B00228E
:104E20001A70654B1A786E4B1A7001E6624B0022BD
:104E30001A70624A13780133DBB213703C2BEDD148
:104E4000130000221A70E9E7D0231B068022D2014A
:104E50005A615B4BFF221A705A4BFE3A1A705A4B3A
:104E600000221A70F0E55F4A12785F4909788A4299
:104E700038D25E480078824234D8814232D3D0237F
:104E80001B068022D2015A614D4BFF221A704D4BF6
:104E9000FB3A1A704C4B00221A700134E4B2312CE8
:104EA00000D9D1E52E236343514A9A5C514B1B78BC
:104EB0009A42F2D12E2262434D4B9B185A784E4BA8
:104EC0001B789A42E9D12000FCF774FB0028BBD183
:104ED0004A4B1B88002BE0D1494B1B78012BCED0CD
:104EE000022BC0D0022BD8D13F4B1B783D4A127801
:104EF0009342D2D23D4909788B42C0D98A42CCD361
:104F0000BDE73A4A12783F4909788A4204D33E49BC
:104F100009788A4200D29CE53C4A1278002A00D0E7
:104F200097E53B4A12783B498A5C002A00D090E51D
:104F300029490A78242002430A708AE52B4A12780C
:104F4000304909788A4200D286E52F4909788A4299
:104F500000D381E52D4A1278002A00D07CE52C4A46
:104F600012782C498A5C002A00D075E51A490A7823
:104F7000242082430A706FE5FBF704FD93235B0056
:104F8000984204D8144A137824210B431370C82381
:104F90005B00984200D862E50F4A137824218B43C6
:104FA00013705CE5512B0020562B00205E2B002057
:104FB000362B002034190020622B0020602B0020AB
:104FC0004F2B0020682B0020662B00205D2B00203B
:104FD0004A2B00204D2B002050190020632B00206D
:104FE000642B00205E0F00205C0F00203A2B002075
:104FF00040030020382B00203D2B00202C2B0020CC
:105000006D10002027120020281200205C2B0020A9
:1050100032120020641A0020020003090F20104001
:105020009A009B185B00C018C0B2704770B50500AD
:105030000A2103F011FA04000A21280003F00CFAF7
:1050400024016418E0B270BD10B584B00F236A4625
:105050009381124C0E3B009303AA6821200004F0B8
:1050600083FD0023009301330D226A446821200050
:1050700004F086FD6B465B7BDA0702D4002004B0A7
:1050800010BD03AA01218B43537000230093023308
:105090006731024804F068FD0120F0E79C1300200E
:1050A00010B584B00F236A469381124C0E3B0093D7
:1050B00003AA6821200004F057FD00230093013368
:1050C0000D226A446821200004F05AFD6B465B7B88
:1050D0009A0702D4002004B010BD03AA02218B431A
:1050E00053700023009302336631024804F03CFD04
:1050F0000120F0E79C13002030B583B0002413E0BA
:105100000B4A12190B4D012300936821280004F06B
:105110002BFD094A1219002300930133682128004E
:1051200004F02EFD0134E4B20F2CE9D903B030BDF8
:10513000DC1200209C130020481A002010B5FFF755
:10514000DBFF002406E0054B185DFFF765FF044B0D
:10515000185501340D2CF6DD10BDC046481A00204C
:1051600040190020F0B587B004000F226A440027E0
:105170001770104E012300936821300004F0F4FCF6
:1051800004AD009707232A006821300004F0F8FCE2
:105190002B7823706B786370AB78A370EB78E37037
:1051A0002B7923716B796371AB79A371200007B000
:1051B000F0BDC0469C130020F0B5DE46574680B5D2
:1051C00089B00400080016001D0010AB1B789B4638
:1051D000FFF72CFF039082463000FFF727FF029075
:1051E00006002800FFF722FF050007005846FFF7DA
:1051F0001DFF0100032C57D00AD8012C18D0022C17
:105200001AD180235B421843C1B22B43DFB213E0B3
:10521000042C11D180235B421843C1B21D43EFB26D
:10522000029E1E43F6B2039A1343DBB29A4603E092
:10523000802149420143C9B206AA0723137053468D
:1052400053709670D77011711C4D0026009605237F
:105250006821280004F088FC05AC0E2323800D3B58
:10526000009322006821280004F07EFC00960123B0
:105270000D2202A98C4662446821280004F080FCBB
:10528000637801221343DBB263700422134363701B
:105290000096022322006821280004F065FC09B072
:1052A000C0BCBB46B246F0BD80235B421843C1B2CE
:1052B0001D43EFB2029A1343DEB2BDE79C130020F8
:1052C00070B584B00C001600FFF7B0FE050020009A
:1052D000FFF7ACFE04003000FFF7A8FE80235B421E
:1052E000034303AA0B21117055709470D370154DB0
:1052F0000026009604235D31280004F035FC02AC42
:105300000E2323800D3B009322006821280004F027
:105310002BFC0096012309226A446821280004F02E
:105320002FFC637802221343DBB263700422134321
:1053300063700096022322006821280004F014FC08
:1053400004B070BD9C13002000B585B004236A46EC
:105350009381FFF76BFE6B46587300230093023373
:1053600003AA6821024804F0FFFB05B000BDC04657
:105370009C13002000B585B003236A469381FFF794
:1053800055FE6B46587300230093023303AA68212D
:10539000024804F0E9FB05B000BDC0469C130020A4
:1053A00000B585B002236A469381FFF73FFE6B4646
:1053B000587300230093023303AA6821024804F0C3
:1053C000D3FB05B000BDC0469C13002030B585B0AE
:1053D000050003AC0B4B1A8822809B78A370322007
:1053E000FFF724FE60702800FFF720FEA070002366
:1053F0000093033322006821034804F0B5FB05B095
:1054000030BDC046B0A500109C13002000B585B08B
:1054100005236A469381FFF709FE6B465873002304
:105420000093023303AA6821024804F09DFB05B0F3
:1054300000BDC0469C13002000B585B006236A4617
:105440009381FFF7F3FD6B465873002300930233FB
:1054500003AA6821024804F087FB05B000BDC046DE
:105460009C13002010B58300084A944663441C68CE
:1054700040226240C02414408022520113431C6029
:10548000C000034B9C466044416010BD04C0014015
:105490000040014080000B4B9C46604400290DD029
:1054A0000823002A0CD004221343026853400C2224
:1054B0001340802252011043036070470023F0E73D
:1054C0000022F1E704C00140002909D08000094B07
:1054D0009C46604480239B0118434023036070472F
:1054E0008000044B9C466044C0239B01184340232A
:1054F0000360F4E704C0014010B501238340D022CB
:105500001206936293610521FFF7ACFF10BD000006
:10551000EFF3108072B6034B1B68002BFBD0BFF378
:105520005F8F70472C0100D0BFF35F8F024B0022CA
:105530001A6080F3108870472C0100D0F8B506007F
:105540000C001500FFF7E4FFE308F718F15C0722F1
:105550002240012393400B4205D1DBB20B433B7049
:10556000FFF7E2FFF8BD2100280001F0ADFC0000CC
:10557000034B1B6802201840431E9841C0B270477D
:1055800000C00640002307E0054A9A189200BFF3C6
:105590005F8F0021116001331F2BF5D97047C04682
:1055A00040000034054A1078431CDBB21370172BFF
:1055B00002D9130010221A707047C046ED12002065
:1055C000074B9B68103080001950BFF35F8FBFF30B
:1055D0005F8F044B0021196082F310887047C0462A
:1055E00000ED00E0240100D010B5091A081F0A4B95
:1055F0009C466144094A914208D8C30706D440102A
:105600004005400D064B184380B210BD054B064ABD
:105610009921064801F0BEFBFC070000FE0F0000C8
:1056200000E0FFFFB4A50010F4A70010E4A50010EF
:1056300010B5091A04394C08090B08D14905490D60
:10564000064A11430180064B2343438010BD054B9E
:10565000054AA121054801F09DFBC04600F0FFFF6F
:1056600000F8FFFF20A60010C8A70010E4A5001056
:1056700001238340034A10681840431E9841C0B27A
:105680007047C04600E100E0002904D0034B1860D9
:10569000034B18607047034B1860FBE780E200E0A3
:1056A00000E100E080E100E010B501238340180034
:1056B000FFF7EAFF10BD0000024B9B68103080002E
:1056C000C058704700ED00E070B504000D00EFF326
:1056D000108672B60C4B1B68002BFBD0BFF35F8F9C
:1056E0002000FFF7E9FF094B984201D0A84205D1FD
:1056F000320029002000FFF763FF70BD044B054A0C
:105700007C21054801F046FB240100D0CD010010AA
:1057100030A6001010A80010E4A50010F0B5CE4689
:10572000474680B583B006000D00EFF3108872B6CF
:10573000564B1B68002BFBD0BFF35F8F544B9A680E
:1057400034001034A300D758524B9F4207D0AF42C9
:1057500000D199E00197504BFB1A2F2B09D94246F3
:1057600039003000FFF72CFF03B0C0BCB946B0468B
:10577000F0BD3000FFF77CFF814600213000FFF7CD
:1057800093FFBFF35F8FFAF76EFD002801D08442CC
:1057900011D10123019C9C430022A368AB4212D08B
:1057A0000622A256002A0DDB53009B189B00220004
:1057B000394CE418F1E72C21384B394AFF3139488C
:1057C00001F0E8FA2200AB4257D106256557002DBB
:1057D00039DB6B005B199A002F4B9B189A68A2600B
:1057E000DA79E27106229A56A2719B795BB2002B9C
:1057F00010DABD200002A0806B005B199B00264AD6
:10580000D318294A11789971157049463000FFF76D
:105810004BFFA4E7201D6B005B199B001E4A9B18E1
:105820001A1D9B88D90A1C2907D15B055B15023319
:1058300059005118FFF7D8FEDDE71C4B1C4AA72181
:10584000184801F0A7FA002812D1002A0ED0FF2331
:105850009371184B9380144A1378A371164B0E4919
:10586000641A644163431B0D1370CEE7094FF2E7DE
:10587000201D1249FFF7DCFEC7E76021104B084AE4
:10588000FF31084801F086FA024F68E7240100D092
:1058900000ED00E0CD010010F012002044A7001040
:1058A000E0A70010E4A500106C2B00202CA700102E
:1058B00000A8001000BDFFFFAAAA00002A130020C4
:1058C00068A7001070B50400012606432D4BF31A9B
:1058D0002F2B28D8FAF7C7FC00282BD0EFF3108C19
:1058E00072B6294B1B68002BFBD0BFF35F8F274D8F
:1058F00022002449521A524155432D0D6DB2244BBA
:105900009B6880001B58B3421BD00022032A32D868
:1059100053009B189B001B49CB189B795BB2AB4291
:105920001FD00132F2E7C2211A4B1B4A49001B4823
:1059300001F030FA88211A4B174AFF31174801F05D
:1059400029FA134B9B68174A1A50174B1A78A27101
:105950001D70BFF35F8F0C4B00221A608CF3108810
:1059600070BD08005300991889004118FF268E71F8
:105970000E4A8A80E9E7CC210D4B074A49000748C7
:1059800001F008FAF0120020240100D0AAAA0000B9
:1059900000ED00E070A70010ACA70010E4A5001017
:1059A00098A70010CD0100106C2B002000BDFFFF58
:1059B000A4A700100022044B02E0044902C30132F4
:1059C000072AFAD97047C04600E400E08080808052
:1059D00070B504000E001500FFF7E4FD0100200083
:1059E00000F006F8A680E580BFF35F8F70BD000071
:1059F000024B9C46614489000160704740000034BE
:105A000010B50C00CB68834207D108000B6998479A
:105A1000002809D02068616810BD9621054B064A10
:105A20004900064801F0B6F90023E3600020002198
:105A3000F2E7C0462CA80010E8AA001040A8001009
:105A400070B505000C00080000F0E8FD200000F033
:105A5000CDFE0849200000F00DFEFFF7A3FD064B28
:105A60009C466044800068602C75A400034BE550A0
:105A700070BDC046855D001040000034E428002061
:105A80000A4B1A68EFF3108172B61368002BFCD032
:105A9000BFF35F8F054B1B68BFF35F8F00221A6057
:105AA00081F3108840BF002000217047002B0020A8
:105AB00010B5002922D003681B7B99421ED8174BD2
:105AC0009C466144090183689C4661440C684968AE
:105AD000002A19D003681B7B9A4215D883680F48A7
