:020000041000EA
:1000000000B5324B212058609868022188439860DF
:10001000D860186158612E4B002199600221596106
:100020000121F02299502B49196001219960352056
:1000300000F044F80222904214D00621196600F024
:1000400034F8196E01211966002018661A6600F04E
:100050002CF8196E196E196E052000F02FF8012189
:100060000842F9D1002199601B49196000215960AB
:100070001A491B48016001219960EB211966A021F2
:10008000196600F012F800219960164914480160C1
:100090000121996001BC002800D000471248134993
:1000A000086003C880F30888084703B5996A0420EC
:1000B0000142FBD001200142F8D103BD02B5186610
:1000C0001866FFF7F2FF186E186E02BD00000240BE
:1000D000000000180000070000035F00212200005C
:1000E000F4000018222000A00001001008ED00E03C
:1000F00000000000000000000000000074B24E7A12
:1001000000200420F7010010C3010010C5010010F9
:10011000C1010010C1010010C1010010C101001097
:10012000C1010010C1010010C1010010C701001081
:10013000C1010010C1010010C9010010CB01001065
:10014000CD010010CD010010CD010010CD01001037
:10015000CD010010CD010010CD010010CD01001027
:10016000CD010010CD010010CD010010CD01001017
:10017000CD010010CD010010CD010010CD01001007
:10018000CD010010CD010010CD010010CD010010F7
:10019000CD010010CD010010CD010010CD010010E7
:1001A000CD010010CD010010CD010010CD010010D7
:1001B000CD010010CD010010CD010010CD010010C7
:1001C00000BE00BE00BE00BE00BE00BE00F04BF888
:1001D000103800BEF2EB8871E0AB001004AC0010E8
:1001E0003402001090A31AE700202149086006C8D5
:1001F00081F3088810471F48006800282FD10DA4FC
:100200000ECC002902D000F012F8F9E71A491B4A77
:10021000002000E001C19142FCD1194988471949E9
:1002200088471949884700BEFDE701C901C29A42C3
:10023000FBD3704704AC0010C0000020000F00206A
:1002400044BA0010000004200000042044BA00104A
:1002500000100420001004200000000070470B482C
:1002600007F0CEFE0047EFF30580C0B270470000F4
:1002700008ED00E0000000D0000F00207C2B0020E3
:10028000D1690010D53E00108D690010575600004E
:1002900006005250ABB3605370A9001006005250D4
:1002A000861C030280A90010060052505422A29D11
:1002B00094A9001005005250DE65F46844BA00109D
:1002C000F8B5C04610B5064C2378002B07D1054B76
:1002D000002B02D0044800E000BF0123237010BDB2
:1002E000281000200000000008930010044B10B5F7
:1002F000002B03D00349044800E000BF10BDC046F6
:10030000000000002C10002008930010F0B5C64635
:1003100000B584B004000E0017001D0005F0E2FCDB
:100320008046E117FA2292000023200008F062FACA
:1003300002000B00029501970096404605F018FE5A
:1003400004B080BCB846F0BD002809D00C280DD000
:1003500011D900230B70FF3313700C38C0B204E0C6
:10036000FF230B70002313700C30704700230B70B9
:10037000FF331370F9E7FF230B7000231370F4E7CA
:1003800000B587B0104B19784B005B189B005B18C9
:100390000E4A12789B189B000D4A9B180D4A127842
:1003A0000D49097804910D49097803910C490978A0
:1003B00002910C49097801910B49097800910B4988
:1003C00007F0F2FD07B000BD71070020492B0020A7
:1003D00040090020442B00206A2B0020472B0020DE
:1003E000452B00204A2B00206406002008930010B3
:1003F000094B1B78FF2B00D07047D0231B068022AF
:10040000D2015A61054BFF221A70054BFA3A1A7055
:10041000044B00221A70EFE7502B00205B2B0020CA
:10042000762B0020742B002010B5CF4B1B88002B9F
:1004300004D1CE4B1B78FF2B04D010BD013BCA4A20
:100440001380FAE7CA4B1A780132D2B21A70C94B3C
:100450001B78012B40D0022B7DD0032B00D1BDE0B7
:10046000042B00D1FDE0052B00D13EE1062BE4D1A9
:10047000BF4B1B783B2BE0D9BF4B1B78FF2B00D128
:1004800084E1D0231B068022D2019A61BA4BFF225D
:100490001A70BA4A13780133DBB21370B44A0021E0
:1004A0001170072BC9D90023B44A1370AF480370E9
:1004B000B14A1370B2490B780133DBB20B70FF21E4
:1004C00001701170012B00D86BE10023AC4A13704E
:1004D0000370A94A1370B0E7272ABCD9A64A12783C
:1004E000FF2A29D0D02212068021C9019161A24A97
:1004F000FF211170A1490A780132D2B20A709C49D9
:1005000000200870092AA6D900229C490A70974C3D
:10051000227099490A709A4802780132D2B2027068
:10052000FF2020700870012A11D9002294490A7016
:10053000227091490A708EE7D02212068021C901EB
:10054000516100228C490A7089490A7083E7864A02
:10055000A02111807FE7864A12783B2A00D87CE7E9
:10056000854A1278FF2A2AD0D02212068021C9019A
:100570009161814AFF21117080490A780132D2B21B
:100580000A707B4900200870042A00D865E7002221
:100590007A490A70754C227077490A707848027857
:1005A0000132D2B20270FF2020700870022A11D9E5
:1005B000002273490A7022706F490A704DE7D022F9
:1005C00012068021C901516100226B490A706849F5
:1005D0000A7042E7644AF02111803EE7644A1278CB
:1005E000312A00D83CE7644A1278FF2A2AD0D02268
:1005F00012068021C90191615F4AFF2111705F4994
:100600000A780132D2B20A70594900200870012AD2
:1006100000D825E7002259490A70544C22705649E7
:100620000A70574802780132D2B20270FF2020705F
:100630000870022A11D9002251490A7022704E49CD
:100640000A700DE7D02212068021C90151610022F3
:1006500049490A7046490A7002E7434AC821118095
:10066000FEE6434A1278632A00D8FCE6424A127832
:10067000FF2A2AD0D02212068021C90191613E4A68
:10068000FF2111703D490A780132D2B20A7038490F
:1006900000200870042A00D8E5E6002237490A70D5
:1006A000324C227034490A70354802780132D2B295
:1006B0000270FF2020700870022A11D900223049F0
:1006C0000A7022702C490A70CDE6D02212068021D1
:1006D000C9015161002228490A7025490A70C2E601
:1006E000214AC82149001180BDE6214A1278062A14
:1006F00000D8BBE6204A1278FF2A2AD0D022120660
:100700008021C90191611C4AFF2111701B490A789F
:100710000132D2B20A70164900200870002A00D1B6
:10072000A4E6002215490A70104C227012490A7082
:10073000134802780132D2B20270FF202070087094
:10074000002A1FD000220E490A7022700A490A703E
:100750008CE6D02212068021C9015161002206498F
:100760000A7003490A7081E62C2B00205B2B0020C5
:10077000732B0020762B0020512B0020742B00209F
:10078000752B0020094A1C2111806FE6D0231B061F
:100790008022D2015A610023054A1370054A137062
:1007A0004BE6024BF0221A8047E6C0462C2B002075
:1007B000512B0020732B0020F0B5D6464F464646FD
:1007C000C0B50230C3B29A46DE0807241C400800B8
:1007D0002D38C0B2532806D9162908D0202908D0B0
:1007E000002902D03120012311E02E20FBE70D204B
:1007F000F9E72E20F7E7C200121AD218013AF100E9
:1008000059181D4FBF5C1D4A57540133DBB2072BEB
:100810002DD8002CEFD0F700FF18184A9046D1577A
:100820000822121B9446FF2265462A410A4052B212
:10083000C100091A591801390F4D695C0D00A54016
:100840002A434546EA555246EF2ADED8771CFF0078
:10085000DF19EA579146FF226546AA404D462A40D5
:1008600052B2654629410A434146CA55CDE7E0BC2C
:10087000BA46B146A846F0BD909800105C19002019
:1008800010B5040020212000FFF796FF0834E4B2E1
:10089000F72CF7D910BD000010B5A0B0324A13787C
:1008A00001331370314B1A685B68314801214942AA
:1008B00080185941002902D137D1632835D9002445
:1008C0002C480121494280185941002903D101D106
:1008D0007C2800D80424AF204042C1178018594119
:1008E000002903D101D1632800D80824002B03D1AB
:1008F00001D1AE2A00D80E241F4B1B689B0705D5DB
:100900001E4B1B78042B12D0062B10D0164B1B78D5
:10091000A34222D9D0231B06802292019A61124B56
:1009200000221A70012020B010BD0224C8E7134B2A
:1009300006221A700020FFF7A3FF22001049684624
:1009400007F032FB6B4619780620FFF735FF6B4640
:1009500059780B20FFF730FFD8E7D0231B06802201
:1009600092015A61DEE7C0465F2B00203803002069
:1009700070FEFFFFEDFEFFFF080F0020432B00205D
:10098000349300100A4B1B68E022D2011340094A3D
:100990001360094B04221A60054B1B68DB05FBD56D
:1009A000034B5B689BB20548C01A80B27047C046D3
:1009B00000C0044000D0044000E00440FF0F0000ED
:1009C000F8B5274B1B78FF2B00D0F8BD254E338898
:1009D00001333380FFF7D6FF02000023224F38682F
:1009E0007968801859413860796032881F4B9A4283
:1009F000EBD91C4B00221A801D4A002307F096FBFE
:100A00001C490B685A1C0A605B001B49C8520B2A20
:100A100002D9184B00221A60134B002000211860E5
:100A2000596000230BE05A0013498C5A00250E4AE6
:100A300010685168001969411060516001330B2B37
:100A4000F1D9094C0C2200232068616807F06EFB85
:100A50000A4B186059600022002322606360B4E7EB
:100A600058070020282B0020000F002087130000CB
:100A7000881300008C1A002074070020380300201F
:100A8000F0B587B00400002304E0E21800211170E3
:100A900001339BB2032BF8D9524E02A804F062F93D
:100AA000072202A9300007F06FFF307904F0B4F894
:100AB0000500707904F0B0F806004B4B1B78012B51
:100AC00005D0494B1B78022B4BD007B0F0BD454AEF
:100AD000D1788A00521852009900C9180901521899
:100AE000424952188100091849009801C3185B0057
:100AF000CB183F495B183F49200007F055FA1F2DDE
:100B000028D8AD003C4B5B599F4605AB3B4A11884A
:100B1000198092789A70200008F08EFB2018314BD3
:100B20001A79374B1B780193364B1B78009305AB32
:100B3000354907F039FAC4E705AB344A1188198002
:100B400092789A70E7E705AB314A1188198092785C
:100B50009A70E0E705AB2F4A1188198092789A7055
:100B6000D9E7204DE9788A00521852009900CB1835
:100B70001B01D2181D4BD2182749200007F014FA88
:100B80002D79012D25D0200008F056FB20182A00D1
:100B9000224907F009FA200008F04EFB2018B200A5
:100BA00092195200104B1B789E01F618760092198C
:100BB0000F4E9219184907F0F7F9200008F03CFB96
:100BC00020180F4B1B780F4A1278154907F0ECF9E3
:100BD0007BE7200008F030FB20182A00114907F0BD
:100BE000E3F9D8E768270020710700206806002095
:100BF000A40700203C930010889300104493001039
:100C00004A2B0020640600205493001048930010E3
:100C10004C930010509300106893001074930010D0
:100C2000789300106C93001070B505000C008307DA
:100C300005D1642107F038FA89B2002907D1C8210B
:100C40004900280007F030FA89B2002929D10C2C7C
:100C500005D8A400284B1B599F46284B187870BD17
:100C6000264B5878FBE7254B9878F8E7234BD87844
:100C7000F5E7224B1879F2E7204B5879EFE71F4B45
:100C80009879ECE71D4BD879E9E71C4B187AE6E731
:100C90001A4B587AE3E7194B987AE0E7174BD87A62
:100CA000DDE70C2CDBD8A400154B1B599F46134BDA
:100CB000187BD4E7114B587BD1E7104B987BCEE7DC
:100CC0000E4BD87BCBE70D4B187CC8E70B4B587C01
:100CD000C5E70A4B987CC2E7084BD87CBFE7074BB7
:100CE000187DBCE7054B587DB9E7044B987DB6E706
:100CF000024BD87DB3E7C046089400108C07002053
:100D00003C94001010B504003B4A022313603B4B97
:100D100019688023DB014B40E021C9010B403849B1
:100D20000B6004231360354B1B68DB05FBD5334B8D
:100D300058680004000C07F08BFC0022314B07F0D0
:100D40001AFC0022304B07F016FC07F0C5FC2F4BB5
:100D50001B78002B21D107F0B9FD2D4A2D4B07F050
:100D6000E6FB2D4A2D4B07F0ECFB02000B000020A8
:100D70002B4907F0DCFB02000B002A49200007F09A
:100D800013F9200008F058FAFF2318407F3B235442
:100D9000013024180023237010BD07F097FD1C4A72
:100DA0001C4B07F0C4FB1C4A1C4B07F0CAFB02009B
:100DB0000B0000201A4907F0BAFB00221A4B07F07B
:100DC000DAFB0022194B07F0BCFB0022184B07F09E
:100DD000B3FB02000B001349200007F0E5F82000E8
:100DE00008F02AFAFF2318407E3B235401302418D0
:100DF00000232370D0E7C04600E0044000C0044058
:100E000000D0044000000A400000303F6D2B00205D
:100E1000643BDF4F8D97E63F7FC2D9AD65325C3FC3
:100E200000003B407094001000002240000014407D
:100E30000000404010B50400144B1A68C0239B0109
:100E40005340E022D2011340114A1360114B042297
:100E50001A600E4B1B68DB05FBD50C4B5B681B0453
:100E6000180C07F00BFD0C4907F0FBFCE621890587
:100E700007F0F7FC094907F0F4FC07F027FD020032
:100E80000B000749200007F08FF810BD00C0044098
:100E900000D0044000E0044000005040000040400A
:100EA0008494001070B5050014004B1EDBB2012BBA
:100EB00024D901344A00A418013148004018052102
:100EC00007F0CAF824182C19A8082418642128004F
:100ED00007F0EAF880B2241AC8214900280007F078
:100EE000E3F880B22018072107F0B6F8FF23194075
:100EF000062913D889000B4B5B589F460C31C9B2A9
:100F0000013DADB2D5E7022008E0032006E0042051
:100F100004E0052002E0062000E0072070BD01206B
:100F2000FCE7C0469094001010B507F07DFE10203D
:100F300004F0E2F8122004F0DFF8162004F0DCF8E8
:100F40000A2004F0D9F80C2004F0D6F80D2004F0A3
:100F5000D3F80B2004F0D0F8032004F0CDF80920DA
:100F600004F0CAF8022004F0C7F8112004F0C4F815
:100F70000F2004F0C1F89621334C0902200005F03F
:100F8000C3FC0221052004F06DF80221042004F0C6
:100F900069F8E26A602353406E221A40802464019B
:100FA0002A4B23431A600E2004F0A6F8D0231B0618
:100FB0008022D2015A62802252025A628022D202D8
:100FC0005A628022D2035A628022D2005A625C6244
:100FD000802292015A62802212015A6208229A6289
:100FE0001B491C4808F048F80321062004F03AF891
:100FF0000321072004F036F800220121062004F026
:1010000049F800220121072004F044F808F078F89C
:101010001F211A2004F026F8002200211A2004F0D3
:1010200039F800211A2004F04FF81F211D2004F088
:1010300019F8002200211D2004F02CF800211D20A9
:1010400004F042F8002010BD008003402C800340D3
:10105000A0860100AC0A00200023012201E052001A
:10106000D2B2002A07D05B00DBB21042F7D00121D8
:101070000B43DBB2F3E7D80870470000F0B5DE465B
:1010800057464E464546E0B583B00090012817D933
:10109000009BDA08934607271F40002900D1203122
:1010A0000B001E3BDBB2632B0DD81E398AB2D30076
:1010B0009B1A9BB29A462B4B5B5C0193012417E071
:1010C00002230093E4E73F39264B5B5C0193E7235F
:1010D0009A46F3E753461B19013B5A46D50065195A
:1010E000214AD05CFFF7B8FF204B58550134E4B2D9
:1010F000072C2CD8002FEDD05B46DD002D191B4BA3
:1011000099465A570826F61BFF23334113405BB21A
:10111000984653461B19013B134AD05CFFF79CFFCE
:101120000300BB40424613434A465355009BEF2BF6
:10113000DCD85B465A1CD200A2180C498D56FF23FE
:10114000B3402B405BB2304118438854CEE701983E
:10115000009B9C46604403B0F0BCBB46B246A94627
:10116000A046F0BDFC050020400300205C190020D3
:10117000F0B5012720E0DA00B2181548815C490873
:1011800081540133DBB21E2B0DD81D2BF3D8DA00AE
:10119000B2180F4CA05C11000831655CED014108EC
:1011A0002943A154EDE70A4A935703218B43614633
:1011B0000B4393550137FFB2072F07D83E00044B6E
:1011C000DB5D03221A4094460023DCE7F0BDC046F5
:1011D0005C19002010B5134B1B78FF2B04D0124B69
:1011E0001B785A2B05D010BD0F4A137801331370AA
:1011F000F5E70E4B1B78002B09D0FFF7B9FF0B4A20
:101200001378013B1370084B00221A70EBE7202182
:101210001820FFF7D1FA034B00221A70044BFF325B
:101220001A70F0E7522B0020692B0020652B00205C
:101230005C2B0020114B1B78002B04D0104A117836
:101240005A1E914213D0002B03D10D4B1B784A2B11
:101250000FD00B4A13780B49C8540133DBB213701B
:101260004A2B08D9130000221A70002004E04B20FA
:1012700002E04B2000E000207047C046672B0020B2
:10128000662B0020901A0020F8B504000E00244BB5
:101290001B78032B01D1002419E00020FFF7F0FA9E
:1012A000002C04D11F4B01221A70002431E01D4B89
:1012B0001C70FAE71B4D28782021FFF7DFFEC0B233
:1012C00028702021FFF7DAFE28700134A4B2012C27
:1012D000EBD8144B1B78EE2BECD9E120C00004F0C6
:1012E0004DFFE7E7104804F049FF0E4B1878F1284E
:1012F000F8D80130C0B21D001870F15DFFF7BEFED6
:101300002870074B03221A70084BFC321A70013404
:10131000A4B22700300007F08FFF8442E5D3F8BD68
:10132000432B0020652B002018150000522B0020B5
:101330000A4B1A780A4B1B789A420DD0094AD05CA6
:10134000AA21D1540133DBB2054A13704A2B02D9CA
:10135000130000221A7070473220FCE7662B002031
:10136000672B0020901A0020F0B5C64600B5CCB01F
:10137000954B1A78954B1B789A4200D11FE1934BFD
:101380001A78914B1B789A4200D118E1FFF7D0FFF1
:1013900004002E2545438E482D1804358D4928001C
:1013A00007F006FF00280ED0312C0DD82900182098
:1013B000FFF76AFF02E0642004F0E0FE864B1B7832
:1013C000002BF8D1DBE7FF240D34E3B20C2B00D95E
:1013D000F5E09C00814B1B599F4603F0AFFC804B0E
:1013E0001B78002B20D07F4A7F498B7A9846487A19
:1013F0000C7ACD797A494979002917D0794E7A4902
:101400004F7B0B7BC97A069105930497039602954F
:1014100001940090434675490EA806F0C5FD0EA93B
:101420001820FFF731FFAAE7714ADDE7704EE6E7C3
:10143000704B1B78012B10D0022BA0D1FFF7A2FA22
:1014400002000EAC6C49200006F0AEFD1F23637253
:1014500021001820FFF718FF91E7FFF793FA020029
:1014600066490EA806F0A0FD0EA91820FFF70CFF94
:1014700085E70EA8FFF704FB0EA91820FFF704FF6D
:101480007DE75F4A5F4B1B78D35C5F490978515C0D
:10149000584A127800915D490EA806F085FD0EA904
:1014A0000F20FFF7F1FE6AE7524B1B78012B12D099
:1014B000022B00D063E70EA9554B0A0031CB31C295
:1014C00031CB31C21B6813601F23CB724B761820BF
:1014D000FFF7DAFE53E74F491820FFF7D5FE4EE736
:1014E0004D4A4E490EA806F05FFD0EA91820FFF7E1
:1014F000CBFE44E70EA8FFF705FC0EA91820FFF766
:10150000C3FE3CE709A807F01DFE0EAA444B03CB1F
:1015100003C21B881380002401E00134E4B2072CCD
:1015200017D80EA807F088FE0EAB9C46604409ABA6
:101530001A5D3C4906F038FDE307EED50EA807F02A
:101540007BFE0EAB9C4660440222374907F01CFA32
:10155000E3E70EA91820FFF797FE10E71A4B1A7859
:101560001A4B1C78A2420ED1230030490EA806F077
:101570001BFD0EA91820FFF787FE00E7124B1B7812
:101580009C4200D1FBE62A4B1B5D0F4A1278009368
:10159000230028490EA806F007FD0EA91820FFF722
:1015A00073FE0134E4B24A2CE8D90024E6E70BA824
:1015B000FFF740FC0BA91820FFF766FEDFE64CB0F2
:1015C00080BCB846F0BDC046662B0020672B0020CB
:1015D00060100020B4940010652B00203C96001091
:1015E00044100020B094001050100020BC94001053
:1015F000AC94001071070020289500103895001059
:10160000701A00202F090020360900204C95001088
:101610009895001074950010B4950010BC950010BA
:10162000E4950010F0950010EC950010F89500106E
:10163000901A0020249600100A2820D88000784BA9
:101640001B589F46774B1A7818210A43D2B21A705A
:101650003F210A401A701A7A39398A431A722A319C
:101660008A431A724F310A401A721A7C7E398A43B1
:101670001A740B318A431A7454318A431A747047AE
:10168000684B1A7818218A431A7058390A431A701D
:101690001A7A46318A431A722A318A431A724F31B2
:1016A0000A401A721A7C7E398A431A740B318A43B3
:1016B0001A7454318A431A74E1E75A4B1A78182184
:1016C0008A431A7027310A401A701A7A06210A438F
:1016D000D2B21A7230218A431A724F310A401A72FA
:1016E0001A7C7E398A431A740B318A431A74543136
:1016F0008A431A74C3E74B4B1A7818218A431A702D
:1017000027310A401A701A7A39398A431A723021FD
:101710000A43D2B21A727F210A401A721A7C7E39A9
:101720008A431A740B318A431A7454318A431A74E7
:10173000A5E73C4B1A7818218A431A7027310A40D2
:101740001A701A7A39398A431A722A318A431A72FC
:10175000B0390A431A721A7C01210A43D2B21A74B0
:101760000C218A431A7454318A431A7487E72D4B2B
:101770001A7818218A431A7027310A401A701A7A87
:1017800039398A431A722A318A431A724F310A4010
:101790001A721A7C7E398A431A740C210A43D2B217
:1017A0001A7460218A431A7469E71E4B1A7818214B
:1017B0008A431A7027310A401A701A7A39398A43D3
:1017C0001A722A318A431A724F310A401A721A7CED
:1017D0007E398A431A740B318A431A7460210A4392
:1017E0001A744CE70F4B1A7818218A431A70273164
:1017F0000A401A701A7A39398A431A722A318A438E
:101800001A724F310A401A721A7C7E398A431A744E
:101810000B318A431A7454318A431A742FE7C04635
:10182000709600105C19002010B54F4B1A784F4B82
:101830001B789A4208D04E490B8801339BB20B802B
:10184000FA2149008B4204D04A4B1B78042B36D036
:1018500010BD474B0021198047498B5CDB43DBB24D
:101860008B544649097802291DD003291FD001292C
:1018700015D0404909780129E6D1052AE4D1002B89
:1018800019D03F4B1A7893009A183E4B9B181B793E
:101890000F2018400138C0B2FFF7CEFED4E73A4916
:1018A000FF200870E5E73949FF200870E1E7384973
:1018B000FF200870DDE70A20FFF7BEFEC4E7354AC7
:1018C000138801339BB21380FA225200934215D041
:1018D000304B1A88FA239B009A42B9D12E4807F060
:1018E000DBFC2E4B1B78132B2CD82D4AD37A1021DE
:1018F0000B43D372274B00221A80A9E7264807F032
:10190000CBFC264B1B78132B08D8254BDA7A1021F9
:101910008A43DA725A7B0A435A73D9E7272B08D8CD
:101920001F4B5A7B10218A435A73DA7A0A43DA72C0
:10193000CEE71B4BDA7A10218A43DA725A7B8A434C
:101940005A73C5E7272B05D8154A537B10210B4343
:101950005373CFE7124B1020D97A0143D9725A7BC7
:1019600002435A73C6E7C0466C2B0020642B00204C
:10197000302B0020432B00205C0700206B2B002025
:10198000422B002044100020532B0020542B002019
:10199000552B00202E2B0020DC1A00206A2B002063
:1019A0005C190020002307E04008D02212068021A5
:1019B000C90051610133DBB2072B0DD8D0221206CA
:1019C0008021C9009161802109019161C207EBD595
:1019D000D02212065161E7E77047000070B5554B01
:1019E0001B78FF2B1FD0534B1B78FF2B26D0514B5E
:1019F0001B78FF2B2DD04F4B1B78FF2B46D04D4B28
:101A00001B78FF2B5FD04C4B1B784C4AFF21D154E5
:101A100000234B4A13704B4A1370464A13704A4BCB
:101A20001A78130072E0494B1B78494AD35CFF2BAC
:101A3000D9D1484B187803F0B3FAD4E7464B1B785A
:101A4000434AD35CFF2BD2D1444B187803F0BEFA43
:101A5000CDE7434B1B783E4AD35CFF2BCBD1414CA7
:101A6000207803F0D3FA404E327821783F4D288811
:101A7000FFF718FA03F07EFA327821782888FFF70A
:101A800011FA0138C0B2FFF7D7FDB4E7384B1B7825
:101A90002F4AD35CFF2BB2D1334C207803F054FA99
:101AA0002278304E3178314D2888FFF7FBF903F06A
:101AB00061FA227831782888FFF7F4F90138C0B24A
:101AC000FFF7BAFD9BE72B4B1B78214AD35CFF2B1A
:101AD00099D1294B187803F0AFFA234E3278214D73
:101AE0002978224C2088FFF7DDF903F043FA327899
:101AF00029782088FFF7D6F90138C0B2FFF79CFD9E
:101B000081E71E490020C8540133DBB2052BF8D908
:101B1000130004E00E490020C8540133DBB2122B3D
:101B2000F8D904E0164B002199540132D2B2042AAC
:101B3000F8D970BD582B00206C2B00205C070020CA
:101B40005E2B00205A2B0020642B0020310900203E
:101B5000701A0020462B002035090020482B002059
:101B600036090020492B0020442B0020402B002068
:101B70002F0900203D0900204A2B0020681A002070
:101B8000841A00200023084A1370084A1370084A78
:101B90001370084A1370084A1370084A1370084BF0
:101BA000FF221A707047C046682B00206B2B002064
:101BB0004F2B0020532B0020542B0020552B0020AE
:101BC0005C2B002070B584B0A24B01221A70A24B8E
:101BD0001A78531EDBB2012B30D99F4B1A78D31ED3
:101BE000DBB2012B73D99C4B1B78052B00D10DE187
:101BF000052B00D82BE1994B1B78002B04D1984B77
:101C00001B78FF2B00D105E1944B1B78012B00D1F1
:101C10000AE10023934A1370934A1370934A137096
:101C2000934AFF211170934A1370934A1370934A99
:101C30001370934B1B78884A137006E1012A2ED04B
:101C4000022A30D041210020FEF7B6FD834B1B78DD
:101C5000002B2CD18B4B5B78312119400520FEF7EE
:101C6000ABFD3A210A20FEF7A7FD864B9B78302179
:101C700019400D20FEF7A0FD784B1A7893009B18B1
:101C8000774A9B5CFF2B1AD07E4B9B7846211940EC
:101C90001220FEF791FD1A20FEF7F2FD9DE77A4B28
:101CA000FF215970CCE7784BFD329A70CAE7754B2B
:101CB0005B78322119400520FEF77EFDD1E7714B9C
:101CC0009B784E2119401220FEF776FDE3E7032AA8
:101CD0005CD0042A5ED06D4B1B78002B5ED05F4B2E
:101CE0001A7893009A185E4B9B18DC78674B1B7828
:101CF000002B02D1092C00D87EE00A21200006F03A
:101D0000D3F9030030335BB25E4A032151561940C8
:101D1000C9B20020FEF750FD0A21200006F0C4F9E8
:101D200030314BB2574C032161561940C9B20520DE
:101D3000FEF742FD3A210A20FEF73EFD484D474E90
:101D4000327893009B18EB1898780A2106F0ACF9CA
:101D5000303040B2042161560140C9B20D20FEF777
:101D60002BFD327893009B18ED18A8780A2106F015
:101D70009BF930314BB2042161561940C9B212208F
:101D8000FEF71AFD1A20FEF77BFD2CE73E4BFF21E4
:101D9000D9709EE73C4BFB321A719CE70F256D44CE
:101DA0002E4B1A7893009A182D4B9B18D8780E2238
:101DB0006A442900FEF7C8FA04002B78FF2B0FD0E5
:101DC000334A137901218B4313710E236B441B7823
:101DD000FF2B0BD02E4A137902218B43137185E719
:101DE0002B4A137901210B431371EEE7284A13792B
:101DF00002210B43137179E7264B1B78214AD35CF0
:101E0000202119400020FEF7D7FC85E71E4AFF215C
:101E10005171EDE61249CB788A7809790091002159
:101E2000012002F0C9FFEFE60D4B5B79FF2B00D0DC
:101E3000EFE60B4B5A7A197AD87903F041F8E8E6C5
:101E4000114A0021D1540133DBB2052BF8D904B07B
:101E500070BDC046432B00206C2B0020422B00207D
:101E600044100020532B00204F2B00205A2B002021
:101E70005C2B00205E2B0020682B00206B2B0020A9
:101E8000642B00205C070020681A0020DC09002079
:101E90005C1900203109002010B5594B5B78FF2BED
:101EA00011D0574B9B78FF2B19D0554BDB78FF2B6C
:101EB00042D0534B1B79FF2B5ED0514B5B79FF2BEC
:101EC00000D17BE010BD4F4B1B78002B03D14D4B55
:101ED00001221A70E5E74B4B00221A70E1E7494BEB
:101EE0001B789A00D2184849525CFF2A0CD09A00FD
:101EF000D2184549FF245454002B17D1434A537834
:101F000001210B435370D0E79A00D2180024545497
:101F1000002B05D13D4A537801218B435370C4E710
:101F20003A4A537802218B435370BEE7374A5378BD
:101F300002210B435370B8E7FF280ED0314B1978BC
:101F40008B005B18304AD218D378013BDBB2D370D8
:101F5000FF2BAED11723D370ABE72A4B19788B0038
:101F60005B18294AD218D3780133DBB2D370182B0F
:101F70009FD10023D3709CE7FF280FD0214B197805
:101F80008B005B18204AD2189378013BDBB2937028
:101F9000FF2B00D091E73B2393708EE7194B197804
:101FA0008B005B18184AD21893780133DBB2937018
:101FB0003C2B00D081E7002393707EE7FF280FD0F1
:101FC000104B19788B005B180F4AD2181379013B1C
:101FD000DBB21371002B00D074E70723137171E794
:101FE000084B19788B005B18074AD2181379013314
:101FF000DBB21371082B00D064E70123137161E792
:10200000681A0020422B0020441000205C19002098
:1020100070B584B0B74B1A78B74B1B789A4201D190
:1020200000F08CFEB54B02221A70B54C684602F0E7
:1020300099FE07226946200006F0A6FC22787F233D
:102040001A402270627813406370A0783F231840D2
:10205000A070E17807220A40E270227913402371D0
:1020600062791F2313406371A24B1B78A54A127833
:10207000934203D0A44909788B425BD1934200D1AB
:10208000E4E09C4B1A78A04B1B789A4200D1ECE01C
:102090009E4B1B78002B00D1F8E09D4B1A789D4B8E
:1020A0001A709A4B1B78002B04D19A4B1B78092B82
:1020B00000D815E1974B18780A2105F0F5FF30306C
:1020C00040B2904B1B78944AD1560140C9B20020CF
:1020D000FEF772FB8F4B18780A2105F0E5FF3031CF
:1020E0004BB28D4C874A1278A1561940C9B20520CF
:1020F000FEF762FB3A210A20FEF75EFB874E30783E
:102100000A2105F0D1FF303040B27F4D2B78E156E7
:102110000140C9B20C20FEF74FFB30780A2105F0D0
:10212000C3FF30314BB22A78A1561940C9B21120F1
:10213000FEF742FB6F4B1D78794B1C78A54200D10E
:1021400020E1784B1B789D4200D11BE1694B1A7846
:10215000754B1B789A4200D1B9E1664B1A78734BE4
:102160001B789A4200D1F1E1624B1A78704B1B78D0
:102170009A4200D117E25F4B1A786E4B1B789A4255
:1021800000D145E25B4B1A786B4B1B789A4200D129
:1021900071E2584B1A78694B1B789A4200D197E24A
:1021A000544B1A78664B1B789A4200D1EAE2514BA5
:1021B0001A78644B1B789A4200D12DE34D4B1A7864
:1021C000614B1B789A4200D17AE34A4B1A785F4BF5
:1021D0001B789A4200D1D5E3464B1A785C4B1B78AA
:1021E0009A4201D100F031FC424B1A78594B1B78CE
:1021F0009A4201D100F0BEFC3E4B1A78564B1B7838
:102200009A4201D100F019FD3A4B1A78534B1B78D2
:102210009A4201D100F074FD364B1B78122B01D885
:1022200000F08CFD00224E4B1A704E4B1A70324B50
:102230001B7830490B704C490A704C490A704C4964
:102240000A704C4AFF21117000F076FD4A4B9B5CEE
:10225000002B05D02B4B1B78474AFF21D15410E7A8
:1022600002F0DAFC2A4B1870F4E7434AD35C002BE7
:1022700005D0254B1B78404AFF21D15408E7204B5D
:10228000587802F0C9FC3D4B1870F2E70F246C44FB
:102290001F4B18780E226A442100FEF755F81D4B9B
:1022A00018702378FF2B0FD0354A137901218B4307
:1022B00013710E236B441B78FF2B0BD0304A13791C
:1022C00002218B431371ECE62D4A137901210B4354
:1022D0001371EEE72A4A137902210B431371E0E6EA
:1022E000084B1B780C4AD35C202119400020FEF7D4
:1022F00063FAEFE66C2B0020642B0020432B0020B8
:10230000682700203109002035090020DC09002061
:10231000462B0020452B00205C070020472B002087
:102320002F090020360900203D0900203009002037
:10233000330900203A0900203B090020340900201D
:102340003C090020320900202E0900202D09002020
:102350003709002039090020380900202C09002005
:102360005E2B00206B2B00204F2B0020542B0020D5
:102370005A2B00205C2B0020701A0020482B0020D4
:102380005C190020E54B187864234343E44A107835
:10239000C01880B2E34B1880E34B1E783100FEF783
:1023A00043FCE24B1B78834201D9E04B1870A542F5
:1023B00048D0DF4B1A78DF4BFF21995400221A5581
:1023C000DD4B1B78022B45D00A21300005F06CFE56
:1023D000303040B2D94CD64D2B78E1560140C9B2CD
:1023E0000020FEF7E9F9D04B18780A2105F05CFED1
:1023F00030314BB22A78A1561940C9B20520FEF7F8
:10240000DBF92D210A20FEF7D7F9C84E30780A21D2
:1024100005F04AFE303040B2C94D2B78E1560140FC
:10242000C9B20D20FEF7C8F930780A2105F03CFE4C
:1024300030314BB22A78A1561940C9B21220FEF7AA
:10244000BBF983E6BB4BFF221A55B94A127800212B
:102450009954B5E7B54E30780A2105F025FE3030A5
:1024600040B2B64D29570140C9B20020FEF7A4F989
:1024700030780A2105F018FE30314BB2B04A12789C
:10248000A9561940C9B20520FEF796F92D210A2058
:10249000FEF792F9A44E30780A2105F005FE30309F
:1024A00040B2A34C2378E9560140C9B20D20FEF793
:1024B00083F930780A2105F0F7FD30314BB22278EC
:1024C000A9561940C9B21220FEF776F93EE6994A9C
:1024D000FF21D154914C207864224243904E3378AE
:1024E0009B18904A1380F53905F0DEFD010030316C
:1024F000C9B20020FEF760F920780A2105F0D4FD6A
:102500003031C9B20520FEF757F930780A2105F0BD
:10251000CBFD303040B2894C8A4D2B78E1560140DA
:10252000C9B20A20FEF748F930780A2105F0BCFD4F
:1025300030314BB22A78A1561940C9B20F20FEF7AC
:102540003BF920211720FEF737F906E6794AFF21EB
:10255000D1540020FEF794F944210220FEF78EFDAD
:1025600053210820FEF78AFD54210E20FEF786FD38
:10257000754B1B78012B0CD0744B1B786F4AD35CC6
:10258000302119401220FEF717F91A20FEF778F9CA
:10259000EAE56E4B1B78694AD35C31211940122061
:1025A000FEF70AF9F1E7FF226249CA54684B1A7034
:1025B00042210020FEF700F950210520FEF7FCF82B
:1025C0003A210A20FEF7F8F8624B1B785B4AD35C8D
:1025D000302119400C20FEF7EFF85F4B1B78FF2BE2
:1025E0000CD05C4B1B78554AD35C46211940112016
:1025F000FEF7E2F81A20FEF743F9BCE5554B1B78CD
:102600004E4AD35C4E2119401120FEF7D5F8F1E770
:10261000484AFF21D154BB390020FEF7CDF85321A1
:102620000520FEF7C9F83A210A20FEF7C5F84B4B02
:102630001B78424AD35C302119400C20FEF7BCF8CD
:10264000474B1B78FF2B0CD0444B1B783B4AD35C89
:10265000462119401120FEF7AFF81A20FEF710F9B5
:1026600090E53E4B1B78354AD35C4E211940112032
:10267000FEF7A2F8F1E72F4AFF21D1540020FEF720
:10268000FFF854210220FEF7F9FC55210820FEF73F
:10269000F5FC3A210C20FEF78FF8324B1B78002B0B
:1026A0000CD1314B1B78254AD15C7F2399431120F3
:1026B000FEF7E4FC1A20FEF7E3F86AE52A4B1B78E4
:1026C0001E4AD15C7E2399431120FEF7D7FCF1E727
:1026D000184AFF21D1540020FEF7D2F84C210220E5
:1026E000FEF7CCFC47210720FEF7C8FC3A210B205F
:1026F000FEF762F8104B1B78022B39D0032B08D061
:102700001A4B1B780D4AD35C452119400F20FEF768
:10271000B5FC1A20FEF7B4F842E5C0466406002076
:102720004A2B0020402B0020492B0020442B002066
:1027300036090020701A0020710700205C07002075
:102740002F0900203D0900204B2B002030090020DC
:102750005A2B002033090020502B00203A0900207A
:10276000700700206D2B00203B0900203409002059
:10277000DC4B1B78DC4AD35C462119400F20FEF766
:102780007DFCC6E7D94AD35C002B28D0D84B1B78F8
:10279000D64AFF21D154B7390020FEF70DF8442165
:1027A0000520FEF709F83A210A20FEF705F8D14B7B
:1027B0001B78FF2B1FD0CC4CCD4D2B78E35C312107
:1027C00019400C20FDF7F8FF2B78E35C322119400B
:1027D0001120FDF7F1FF1720FEF752F8E7E4C64C91
:1027E000A07802F019FAC54B1870607802F014FA5C
:1027F000C34B1870CAE7BC4CBD4D2B78E35C32214B
:1028000019400C20FDF7D8FF2B78E35C34211940E8
:102810001120FDF7D1FFDEE7B44AFF21D154B739CB
:102820000020FDF7C9FF43210520FDF7C5FF3A2130
:102830000A20FDF7C1FFB34B1B78AB4AD35C3021B4
:1028400019400C20FDF7B8FFAF4B1B78002B07D0C9
:10285000012B14D0022B21D01A20FEF711F8ADE481
:10286000A84B1B78A04AD35C462119401120FDF7E4
:10287000A3FFA64A937903218B439371ECE7A14B05
:102880001B78994AD35C4E2119401120FDF794FF23
:102890009E4A937903210B439371DDE7994B1B7893
:1028A000914AD35C492119401220FDF785FF974AD0
:1028B000937903218B43937101210B439371CBE7F0
:1028C0008A4AFF21D154B0390020FDF775FF4E210F
:1028D0000520FDF771FF3A210A20FDF76DFF854BBA
:1028E0001B78002B24D08A4B1A788A4B1A70894E99
:1028F00030780A2105F0D8FB303040B27A4C864D52
:102900002B78E1560140C9B20C20FDF755FF307815
:102910000A2105F0C9FB30314BB22A78A156194083
:10292000C9B21120FDF748FF1A20FDF7A9FF4CE4BA
:102930000F246C44764B18780E226A442100FDF770
:1029400003FD744B18702378FF2B0FD06F4A137957
:1029500001218B4313710E236B441B78FF2B0BD08B
:102960006A4A137902218B431371C0E7674A1379CE
:1029700001210B431371EEE7644A137902210B43E3
:102980001371B4E7594AFF21D154B0390020FDF743
:1029900013FF46210520FDF70FFF3A210A20FDF71E
:1029A0000BFF544B1B78002B25D05C4B1A785C4BEB
:1029B0001A705B4E30780A2105F076FB303040B259
:1029C000494C584D2B78E1560140C9B20C20FDF717
:1029D000F3FE30780A2105F067FB30314BB22A78DC
:1029E000A1561940C9B21120FDF7E6FE1A20FDF7E5
:1029F00047FFFFF7F1FB0F246C44484B18780E2279
:102A00006A442100FDF7A0FC454B18702378FF2B8A
:102A10000FD03E4A137901218B4313710E236B446F
:102A20001B78FF2B0BD0394A137902218B4313718A
:102A3000BFE7364A137901210B431371EEE7334A9E
:102A4000137902210B431371B3E7284AFF21D154B4
:102A50000020FDF715FF4E210220FEF70FFB4C2151
:102A60000820FEF70BFB3A210B20FDF7A5FE2E4BAD
:102A70001B78002B0AD0012B1ED0022B58D0032B21
:102A800067D01A20FDF7FCFEFFF7AEFB164C274D72
:102A90002B78E35C4F2119400D20FDF78DFE2B783C
:102AA000E35C462119401220FDF786FE174A137891
:102AB00024218B431370E4E70B4C1C4D2B78E35C13
:102AC0004F2119400D20FDF777FE2B78E35C4E2156
:102AD00019401220FDF770FE0C4A137824210B4395
:102AE0001370CEE7340900205C070020701A002024
:102AF0003C090020DC09002068270020462B00202C
:102B0000472B0020320900205D2B00205C1900209B
:102B100062060020630600202E09002060060020C7
:102B2000610600202D090020602B002037090020BD
:102B3000834C844D2B78E35C4F2119400D20FDF729
:102B40003BFE2B78E35C492119401220FDF734FE4F
:102B500097E77B4C7B4D2B78E35C412119400D209E
:102B6000FDF72AFE2B78E35C552119401220FDF772
:102B700023FE86E7744AFF21D154B0390020FDF7C7
:102B80001BFE4E210520FDF717FE3A210A20FDF716
:102B900013FE6E4B1B78002B25D06D4B1A786D4BB6
:102BA0001A706C4E30780A2105F07EFA303040B24F
:102BB000634C694D2B78E1560140C9B20C20FDF7FA
:102BC000FBFD30780A2105F06FFA30314BB22A78DC
:102BD000A1561940C9B21120FDF7EEFD1A20FDF7EC
:102BE0004FFEFFF709FB0F246C44594B18780E2257
:102BF0006A442100FDF7A8FB564B18702378FF2B81
:102C00000FD0564A137901218B4313710E236B4465
:102C10001B78FF2B0BD0514A137902218B43137180
:102C2000BFE74E4A137901210B431371EEE74B4A7C
:102C3000137902210B431371B3E7434AFF21D154A7
:102C4000B0390020FDF7B8FD46210520FDF7B4FDA1
:102C50003A210A20FDF7B0FD3C4B1B78002B25D014
:102C60003F4B1A783F4B1A703E4E30780A2105F0E0
:102C70001BFA303040B2324C3B4D2B78E1560140CC
:102C8000C9B20C20FDF798FD30780A2105F00CFA46
:102C900030314BB22A78A1561940C9B21120FDF744
:102CA0008BFD1A20FDF7ECFDFFF7AEFA0F246C4404
:102CB0002B4B18780E226A442100FDF745FB294B67
:102CC00018702378FF2B0FD0244A137901218B43EE
:102CD00013710E236B441B78FF2B0BD01F4A137903
:102CE00002218B431371BFE71C4A137901210B4367
:102CF0001371EEE7194A137902210B431371B3E7FD
:102D0000114AFF21D1540020FDF7BAFD44210220D1
:102D1000FEF7B4F949210820FEF7B0F94D210C2047
:102D2000FEF7ACF91A20FDF7ABFDFFF775FA064A7E
:102D30000021D1540133DBB2122BF8D904B070BD9D
:102D40005C07002037090020701A0020DC090020F1
:102D50002B090020622B0020390900205C1900207B
:102D60002A090020612B00203809002030B583B0EB
:102D70000400CC4B1B78CC4AD35CFF2B00D178E00D
:102D8000CA4B1B78C84AD35CFF2B00D191E0C84BDB
:102D90001B78C54AD35CFF2B00D1AAE0C54B1B783A
:102DA000C14AD35CFF2B00D1D3E0C34B1B78BE4A92
:102DB000D35CFF2B00D1FAE0C04B1B78BA4AD35C3E
:102DC000FF2B00D118E1BE4B1B78B74AD35CFF2B19
:102DD00000D12BE1BB4B1B78B34AD35CFF2B00D156
:102DE00037E1B94B1B78B04AD35CFF2B00D14CE1E3
:102DF000B64B1B78AC4AD35CFF2B00D1A1E1B44B9E
:102E00001B78A94AD35CFF2B00D1C6E1B14B1B78DC
:102E1000A54AD35CFF2B00D1FCE1AF4B1B78A24A43
:102E2000D35CFF2B00D111E2AC4B1B789E4AD35CE4
:102E3000FF2B00D124E2AA4B1B789B4AD35CFF2BCB
:102E400000D137E2A74B1B78974AD35CFF2B00D108
:102E50004CE2A54B1B78944AD35CFF2B00D15FE278
:102E6000A24B1B78904AD35CFF2B00D172E203B0D7
:102E700030BD9F4BFF221A70FF280BD09D4A13785C
:102E8000013BDBB21370FF2B0FD09A4B1A789A4B91
:102E90001A7075E7974A13780133DBB21370182B59
:102EA000F3D1130000221A70EFE7130017221A70F3
:102EB000EBE78F4BFF221A70FF2C0BD08F4A137851
:102EC000013BDBB21370FF2B0FD08C4B1A788C4B6D
:102ED0001A705CE7894A13780133DBB213703C2B1C
:102EE000F3D1130000221A70EFE713003B221A708F
:102EF000EBE77F4BFF221A70FF2C1FD0814A13781B
:102F0000013BDBB21370002B02D113000C221A70AC
:102F10007D4B1878642343437C4A1078C01880B2F4
:102F20007B4B1880774B1978FDF77EFE794B1B7829
:102F3000984200D332E7774B18702FE7714A137825
:102F40000133DBB213700D2BE2D1130001221A7092
:102F5000DEE7674BFF221A706B4B187864234343FC
:102F60006A4A1078C01880B2694B1880FF2C0ED0C6
:102F7000684A1378013BDBB21370002B00D014E7D2
:102F8000604B1978FDF750FE624B18700DE7614BEE
:102F90001D780135EDB21D705A4B1978FDF744FECE
:102FA000854200D801E75B4B01221A70FDE6504BC9
:102FB000FF221A70FF2C0FD0544A1378013BDBB26A
:102FC0001370FF2B00D0F7E6130063221A704E4AED
:102FD0001378013B1370EFE64C4A13780133DBB2F0
:102FE0001370642B00D0E7E6130000221A70464AE3
:102FF000137801331370DFE6FF2C0BD0464A1378A9
:10300000013BDBB21370FF2B00D0DCE61300012282
:103010001A70D8E6404A13780133DBB21370012BE3
:1030200000D8D0E6130000221A70CCE63B4B1B7888
:10303000FF2B02D0FDF7DCF9CCE6394B1B78FF2BD8
:1030400003D0374BFF221A70F4E7354B00221A7079
:10305000F0E7344A137859424B41DBB21370002B2E
:1030600009D1314AD37802210B43DBB2D37001215D
:103070008B43D370B5E62C4AD37801210B43DBB2E6
:10308000D37002218B43D370ABE6284B1B78002B07
:103090004ED1264BFF221A70234A137803210B438B
:1030A0001370A5E631090020701A002035090020B0
:1030B000360900202F0900203D090020300900209A
:1030C000330900203B0900203A0900203409002080
:1030D0003C090020320900202E0900202D09002083
:1030E0003709002039090020380900202C09002068
:1030F000582B0020462B0020452B0020482B002079
:10310000472B0020492B0020640600204A2B00207A
:10311000402B0020442B00204B2B00205A2B00205A
:10312000502B00206D2B00205C1900207007002020
:10313000954B00221A70954A137803218B43137024
:1031400056E6FF2C17D0924A1378013BDBB213707E
:10315000002B02D1130002221A708D4B1B78022B18
:1031600014D0012B00D04AE68A4B03221A708A4BF6
:1031700001321A7043E6864A13780133DBB21370CA
:10318000022BEAD9130001221A70E6E7824A0321D2
:103190001170804A01311170E3E7804B1B78002BDE
:1031A0000BD17E4BFF221A70784A137901218B4391
:1031B000137101318B43137128E6784B00221A708A
:1031C0006B46DD1D764B18786B469A1D2900FDF77E
:1031D000BBF8744B18702B78FF2B0FD06B4A137908
:1031E00001218B4313716B4606331B78FF2B0BD0E9
:1031F000664A137902218B43137107E6634A1379F8
:1032000001210B431371EEE7604A137902210B434E
:103210001371FBE5FF2C0ED0002C00D0FDE5624AB7
:103220001378013BDBB21370FF2B00D0F5E51300E0
:1032300002221A70F1E55C4A13780133DBB2137095
:10324000022BE9D9130000221A70E5E7FF2C0BD0FE
:10325000564A1378013BDBB21370FF2B00D0E3E535
:10326000130017221A70DFE5504A13780133DBB2DE
:103270001370182B00D0D7E5130000221A70D3E585
:10328000FF2C0BD04A4A1378013BDBB21370FF2BA3
:1032900000D0D0E5130017221A70CCE5444A137809
:1032A0000133DBB21370182B00D0C4E513000022E9
:1032B0001A70C0E5FF2C0ED0002C00D0C2E53D4AAC
:1032C0001378013BDBB21370FF2B00D0BAE513007B
:1032D00003221A70B6E5374A13780133DBB2137054
:1032E000032BE9D9130000221A70E5E7FF2C0BD05D
:1032F000314A1378013BDBB21370FF2B00D0A8E5F5
:10330000130017221A70A4E52B4A13780133DBB29D
:103310001370182B00D09CE5130000221A7098E55A
:10332000FF2C0BD0254A1378013BDBB21370FF2B27
:1033300000D095E5130017221A7091E51F4A137803
:103340000133DBB21370182B00D089E51300002283
:103350001A7085E50020FDF793FA194B1B78FF2BB7
:1033600008D0174BFF221A70084AD37903210B4368
:10337000D3717CE5124B00221A70044AD3790321E1
:103380008B43D37173E5C046700700205C190020A1
:1033900071070020360900202F090020DC090020D9
:1033A000462B0020452B00205D2B002062060020CC
:1033B00060060020602B00202B0900202A09002035
:1033C0005807002070B5E24B07221A70E14B1B78BA
:1033D000012B23D0022B00D183E0032B7CD0042BC4
:1033E00000D167E1DC4B1B78022B00D1A2E1002267
:1033F000DA4B1A70DA4B1A70DA4B1A70DA4B1B7808
:10340000D4490B70D9490A70D9490A70D9490A7050
:10341000D9490A70D94AFF211170CAE10020FDF78D
:103420002FFAD74BFF225A7054210220FDF726FEB7
:103430004D210820FDF722FEC74B1B78022B07D039
:10344000012B1CD0002B31D01A20FDF719FAB2E164
:10345000CC4C6378552119400D20FDF7ADF9637808
:10346000502119401220FDF7A7F9C74B5A790321C3
:103470000A435A719A7803218A439A70E4E7C14C4F
:103480006378442119400D20FDF796F963784E21A9
:1034900019401220FDF790F9BB4B9A7803210A439B
:1034A0009A705A7903218A435A71CDE7B54C6378F3
:1034B000302119400D20FDF77FF96378462119402E
:1034C0001220FDF779F9B04B9A7803218A439A705C
:1034D0005A798A435A71B7E79F4A1278002A00D175
:1034E0007DE7022B4CD0022B52D09A4B1B78032B3A
:1034F00000D18FE0984B1B78012B00D196E0964BC2
:103500001B78022B00D056E1924B1B78032B00D086
:1035100051E19E4C20780A2104F0C6FD01003031B3
:10352000C9B20020FDF748F920780A2104F0BCFD5B
:103530003031C9B20520FDF73FF93A210A20FDF7E5
:103540003BF9934C20780A2104F0AEFD01003031A4
:10355000C9B20C20FDF730F920780A2104F0A4FD4F
:103560003031C9B21120FDF727F91A20FDF788F98B
:103570000023884A1370884A1370884A13701AE12E
:10358000754A1278012AAED17D4BFE329A70ACE7B3
:10359000714B1B78022BA8D1804B1B78002B03D1D9
:1035A0007A4A13707A4A13706C4B00221A707B4B64
:1035B000FF321A70754C20780A2104F075FD010065
:1035C0003031C9B20020FDF7F7F820780A2104F065
:1035D0006BFD3031C9B20520FDF7EEF83A210A2023
:1035E000FDF7EAF86B4C20780A2104F05DFD01003C
:1035F0003031C9B20C20FDF7DFF820780A2104F041
:1036000053FD3031C9B21120FDF7D6F81A20FDF76D
:1036100037F96AE7504B1B78012B00D06AE7584B0B
:10362000FF22DA705E4B00221A7063E7574C207855
:103630000A2104F039FD030030335BB2514D022101
:1036400069561940C9B20020FDF7B6F820780A2162
:1036500004F02AFD30314BB2022169561940C9B23B
:103660000520FDF7A9F83A210A20FDF7A5F8484CF6
:1036700020780A2104F018FD030030335BB20321E7
:1036800069561940C9B20C20FDF796F820780A2136
:1036900004F00AFD30314BB2032169561940C9B21A
:1036A0001120FDF789F81A20FDF7EAF82278394B46
:1036B0001A7024E7284B1B78012B00D092E6384B78
:1036C0001B78002B00D08DE6244B00221A70354B5E
:1036D000FF321A702D4C20780A2104F0E5FC01001D
:1036E0003031C9B20020FDF767F820780A2104F0D4
:1036F000DBFC3031C9B20520FDF75EF83A210A2023
:10370000FDF75AF8234C20780A2104F0CDFC010083
:103710003031C9B20C20FDF74FF820780A2104F0AF
:10372000C3FC3031C9B21120FDF746F81A20FDF76D
:10373000A7F840E00023084A1370144A1370144A93
:103740001370114A537903218B4353714FE6C046DE
:10375000432B00206C2B00206F2B00205E2B0020C1
:10376000772B0020682B0020642B00206B2B00207F
:10377000552B00204F2B00205A2B00205C2B0020C3
:10378000841A00205C0700205C1900206E2B0020AA
:10379000702B0020722B0020712B0020572B002053
:1037A000592B0020562B0020034A0021D15401330D
:1037B000DBB2042BF8D970BD841A00202D4B5B7846
:1037C000FF2B06D02C4B1B78012B1AD0012B34D0A9
:1037D0007047FF280AD0284A1378013BDBB21370E8
:1037E000FF2BEFD1130002221A70EBE7224A137865
:1037F0000133DBB21370022BE4D9130000221A70DC
:10380000E0E71C4A9278FF2AE0D1FF280AD01B4942
:103810000A78013AD2B20A70FF2AD7D10A003B21B6
:103820001170D3E715490A780132D2B20A703C2AE6
:10383000CCD10A0000211170C8E70E4BDB78FF2BBA
:10384000C6D1FF280AD00E4A1378013BDBB21370B1
:10385000FF2BBDD113003B221A70B9E7084A137839
:103860000133DBB213703C2BB2D1130000221A706B
:10387000AEE7C046841A00206F2B00206E2B00207C
:10388000702B002010B584B0FDF79AF8FCF7CCFD42
:10389000FDF7CAFFFDF79EFCD0231B065B685B07A4
:1038A0002BD4C74A138801331380D0231B065B68CF
:1038B0009B0300D57EE0C34A138801331380D023D5
:1038C0001B065B681B0400D5DEE0BF4A138801338A
:1038D0001380BE4A13780133DBB21370072B02D971
:1038E000130000221A70BA4802F090FBD0231B0686
:1038F000802292015A61002434E1B14B1A881300EE
:10390000333B9BB2F82B0DD996235B009A4205D925
:10391000B04B1A78B04B1B789A4239D0A84B002292
:103920001A80C2E7AD4B00221A70FCF761FDAC4B68
:103930001B78022B18D0032B20D0012B0AD0A94BC7
:10394000FF221A70A64BFD3A1A70A24A137801336F
:103950001370E3E7FEF742F8A34BFF221A709D4A6B
:10396000137801331370D9E7FEF738F89D4BFF2227
:103970001A70984A137801331370CFE7FEF72EF8C8
:103980009A4BFF221A70934A137801331370C5E7DC
:10399000924B00221A70FCF72BFDFEF71FF8924B9A
:1039A000FF221A708E4BFE3A1A708A4A137801333E
:1039B0001370B3E7834B1A881300333B9BB2F82B89
:1039C0000DD996235B009A4205D9824B1A78824B17
:1039D0001B789A423CD07B4B00221A806FE77F4BCA
:1039E00000221A70FCF704FD7D4B1B78022B18D0C7
:1039F000032B1FD0012B0BD07D4B1B7824221A42A6
:103A000021D093437A4A1370F920FDF713FCE2E7C3
:103A1000FF20FEF741FAFDF7E1FF734BFF221A701A
:103A2000D9E7FF20FFF7A2F9FDF7D8FF6D4BFF2282
:103A30001A70D0E7FF20FFF7C1FEFDF7CFFF6B4BF9
:103A4000FF221A70C7E724221343694A1370DBE789
:103A5000624B00221A70FCF7CBFCFDF7BFFF604BF6
:103A60001B78013B022BB6D95A4B1B785A4A127865
:103A70009342B0D15D4AFF211170594AFC3911704F
:103A80000133544A1370A6E74F4B1A88531E9BB25A
:103A9000952149008B420DD996235B009A4205D9A6
:103AA0004C4B1A784C4B1B789A4241D1464B002222
:103AB0001A800EE7494B00221A70FCF799FC484B1C
:103AC0001B78022B19D0032B20D0012B0CD0494B93
:103AD0001B78FF2B23D0474BFF221A70444AD3791F
:103AE00003210B43D371E1E70020FEF7D5F9FDF781
:103AF00075FF3D4BFF221A70D8E70020FFF736F91B
:103B0000FDF76CFF374BFF221A70CFE70020FFF75D
:103B100055FEFDF763FF354BFF221A70C6E7354BA4
:103B200000221A70324AD37903218B43D371BDE747
:103B300000242A4B1C70FCF75BFCFEF723F8FDF712
:103B40004DFF274B1C70244B1A78224B1A70ADE79F
:103B5000E2001E4B1B789B18254AD05CFDF722FF24
:103B60000134E4B2032CF3D9D0231B068022520186
:103B70005A619A61154B1B78DA073FD5D02212069D
:103B80008021490251619A073ED5D0221206802138
:103B9000C90251615B073DD5D0231B068022D203A9
:103BA0005A6102F09FF80A4B029300230193124BD3
:103BB00000933222002302F0DBF9012004B010BD93
:103BC0003E2B0020322B00202A2B0020632B0020CC
:103BD000100F00206C2B0020642B00205E2B002097
:103BE0006B2B0020542B0020532B0020552B002042
:103BF0005C1900205807002099080010D0221206F6
:103C0000802149029161BEE7D02212068021C902BB
:103C10009161BFE7D0231B068022D2039A61C0E7DF
:103C200070B584B0604C684601F09CF80722694684
:103C3000200004F0A9FE22787F231A4022706278C7
:103C400013406370A0783F231840A070E1780722EA
:103C50000A40E27022791340237162791F231340D6
:103C6000637100F0D9FF514B1870607800F0D4FFF9
:103C70004F4B1870207900F0CFFF4E4B18706079D1
:103C800000F0CAFF4C4B1870A07900F0C5FF4B4BF9
:103C900018704B4B1B78002B0FD0444B1A78494BB4
:103CA0001A70474B1B78002B31D1464B1B78092BE0
:103CB0002DD803AB20221A7031E00B246C443B4B0F
:103CC00018780A226A442100FCF73EFB3D4B18702D
:103CD0002378FF2B0FD03C4A137901218B431371BA
:103CE0000A236B441B78FF2B0BD0374A1379022130
:103CF0008B431371D5E7344A137901210B431371B8
:103D0000EEE7314A137902210B431371C9E72D4BBA
:103D100018780A2104F0C8F9303003AB1870294B29
:103D200018780A2104F0C0F93031CDB203AB5D70D0
:103D30001D4A51780E0930369E700F240C403034E5
:103D4000DC70107804F094FD04F0C0FD00221F4BDD
:103D500004F0F7FB04F0B8FC1D4B18701D4B1B78EA
:103D6000002B07D0104BD8780138C0B2FDF764FCA7
:103D700004B070BD184B04221A7003AB19780020F0
:103D8000FCF71AFD29000520FCF716FD3A210A2050
:103D9000FCF712FD31000C20FCF70EFD2100112074
:103DA000FCF70AFDDEE7C04668270020462B00200E
:103DB000472B0020442B0020492B00204A2B0020B9
:103DC000DC090020452B00205C1900200000F83F92
:103DD0006A2B0020522B0020432B002030B5A5B0C9
:103DE0000D0014003749100005F0E2F9002807D152
:103DF0001B23237040336370133BA3700023E370D5
:103E00003149200005F0D4F9002809D11B23237083
:103E100040336370293BA3701833E3700023237190
:103E200023782D2B03D00D2B01D01B2B01D1002586
:103E30003FE02A00254920A804F0B6F800250BE051
:103E4000234B9B699B06FBD41078214B18600131F2
:103E500001320029F4D0013520AB5B5D002B03D08B
:103E600020AB5A190021F4E76846FCF789FA0025CF
:103E70000BE0174B9B699B06FBD41078144B186022
:103E8000013101320029F4D001356B465B5D002B16
:103E9000CDD02A006A440021F4E70D4B9B699B06B4
:103EA000FBD410780A4B1860013101320029F4D09C
:103EB00001356219635D002B01D00021F6E725B0C2
:103EC00030BDC0469C960010A4960010A896001025
:103ED00000800340F0B5C64600B5D0B0974A1F2316
:103EE0001A21FF3153547E21FF3153546039FF3979
:103EF000AB2040001154924AE53813541930115444
:103F00007B3153548F4D002200232A606B608E4C0E
:103F1000012323808D4A1380853802F0EFFE8C4BFD
:103F200018608C4904F0C0F804F0A2FC061C278835
:103F300004F0C6FCC4B2200004F0A0FC011C301C3C
:103F400004F075FC8321C90504F08BFC04F0B8FC77
:103F5000C0B224010443BB00DB199B007E4A944697
:103F600063445C6002F066F905F018F9FCF7DCFFC9
:103F70007A4C04A800F0F6FE072204A9200004F001
:103F800003FD22787F231A40227062781340637009
:103F9000A0783F231840A070E17807220A40E27021
:103FA00022791340237162791F231340637100F05B
:103FB00033FE6B4B1870607800F02EFE694B187062
:103FC000207900F029FE684B1870607900F024FE1B
:103FD000664B1870A07900F01FFE654B18702B68B7
:103FE0006A68134306D1634A137824210B43137084
:103FF000002374E012AC604B1293604D22006049C4
:104000002800FFF7EBFE5F4B1A6812921B792371B1
:1040100099212200C9002800FFF7E0FE534B1A78CF
:104020000A235343584A117882224A439B18434A31
:104030009B184D4A12784B490978029148490978F2
:1040400001914B49097800915049200003F0ACFFE1
:1040500022004F492800FFF7C1FE4E4A4E49280072
:10406000FFF7BCFE002406E04C4A4D494348FFF7E9
:10407000B5FE0134E4B23F2C26D822000123A34030
:10408000D817304D296819406D6828400143F0D099
:10409000022B0DD0042B11D0012BE5D0414912A8E1
:1040A00003F082FF12AA40493448FFF797FEE0E789
:1040B0003E4A3F493148FFF791FEDAE73D4A3E4923
:1040C0002E48FFF78BFED4E73C4A3D492B48FFF7CB
:1040D00085FE88E73B4AAA21D1540133DBB24A2B43
:1040E000F8D90023384A1370384A137007E0384A69
:1040F0009800002181521218518001339BB2C822CE
:1041000092009342F3D30023324A1380324A138041
:10411000324B1A78130004E031490020C8540133AF
:10412000DBB2052BF8D9130004E02E490020C85457
:104130000133DBB2122BF8D95BE0C046A4070020A4
:1041400040090020080F0020362B0020342B0020CF
:104150006427002040420F0000000540682700202F
:10416000462B0020472B0020442B0020492B002009
:104170004A2B00205C190020636C73000080034010
:10418000C50400009C96001071070020B096001036
:10419000CB0400000C970010CD04000030970010F5
:1041A000D70400008C970010E40400005097001022
:1041B000DB04000070970010DF0400009C970010E3
:1041C000E9040000901A0020662B0020672B0020D5
:1041D000E41A00203A2B00203C2B0020642B002006
:1041E000681A0020701A0020CC4B0021995401322B
:1041F000D2B2042AF8D9CA4B1B78022B00D19CE01A
:1042000000F09CFDC74B00241C70C74A907A0F2118
:1042100008401871507AD870107A9870D079587018
:104220005C71507B01405972117B1972D27ADA713C
:1042300001220121BD4801F0CBF90CAB0022BC49A1
:104240000120FCF763F8FA2006AB0022B949800090
:10425000FCF75CF80020FCF713FBB74B1B78012B35
:1042600072D0B64AD17802230B43D37001218B431D
:10427000D370B34B1B78012B74D0022B78D0002B5A
:104280006AD0B04B1B78FF2B7BD0AF4B1B78012B38
:104290007DD00020FCF7F4FAAC4A1368526813434F
:1042A00009D09F4B1B78012B00D107E19C4B1B7859
:1042B000022B00D107E1F620FCF7BCFFFA20FCF747
:1042C000B9FFF320FCF7B6FFF720FCF7B3FFD023CC
:1042D0001B0604229A62802292029A6280221202B3
:1042E0009A6200220121022000F0D4FE0022012166
:1042F000112000F0CFFE002201210F2000F0CAFEA5
:10430000934B1B78FF2B00D1E2E0924B1B78FF2BE5
:1043100000D1E6E0904B1B78FF2B00D1EAE08F4BF9
:104320001B78FF2B00D1EEE08D4B1A788D4B1B785C
:104330009A42E5D0FDF718F8E2E78B4B03221A709A
:104340008A4B01321A705BE77C4AD1780B43D370F9
:1043500002218B43D3708CE7784A937903218B43F6
:1043600093718EE7754A917903230B43937188E724
:10437000724A937903218B43937102390B439371F2
:104380007FE76E4A1178FC3B0B4313707DE7784B57
:1043900000221A70774C04A800F0E4FC072204A95C
:1043A000200004F0F1FAA07800F036FC724B18708F
:1043B000607800F031FC714B1870207900F02CFC13
:1043C0006F4B1870607900F027FC6E4D2870A07953
:1043D00000F022FC84B2FA23DB009C466444A4B2C1
:1043E000694B1C802F783B1FDBB2062B02D8604B39
:1043F000FF221A70032F08D00B2F00D049E7604B23
:104400001B7898461D00002633E05D4B1B789846CC
:104410001D00002601E0013DEDB2002D09D02A006B
:1044200039002000FCF73EFD0728F4D10136F6B232
:10443000F1E7022E07D809D1424639002000FCF7E7
:1044400031FD072802D04A4BFF221A70022ED3D129
:10445000424639002000FCF725FD0728CCD1464B09
:104460001B78022BC8D9424BFF221A70C4E7013DCA
:10447000EDB2002D09D02A0039002000FCF712FD12
:104480000728F4D10136F6B2F1E7002E02D1384BFD
:10449000FF221A70012E00D0FBE6424639002000B0
:1044A000FCF700FD072800D0F3E6334B1B78012B07
:1044B00000D9EEE62E4BFF221A70EAE633491820A7
:1044C000FCF7E2FEF2E632491820FCF7DDFEF2E6E8
:1044D000304BFF221A70FDF79BFD1D4B00221A7016
:1044E00013E72C4BFF221A70FDF76CFB194B0022CF
:1044F0001A700FE7274BFF221A70FEF763FF164B67
:1045000000221A700BE7244B1B78002B00D00BE71E
:10451000FFF786FB114B00221A7005E7841A002072
:10452000710700204410002050100020DC1A0020E9
:10453000853800109D4500106D2B00205C1900206F
:104540005D2B0020700700204B2B0020080F00205F
:10455000542B0020532B0020552B00205C2B0020D7
:10456000662B0020672B00202F0900203609002031
:104570004E2B002068270020452B0020472B0020D1
:10458000442B0020492B0020402B0020A097001036
:10459000CC9700104F2B0020652B002030B5A3B026
:1045A000B74A13780133DBB21370B64A1288002A77
:1045B00002D0013AB3490A80B34A1278FF2A51D097
:1045C0003C2B58D0B14B1B685B0700D5CEE0AD4B00
:1045D0001B88002B0AD1AE4B1B78012B00D1FEE0CB
:1045E000022B00D1ECE0022B00D11AE1A44B1C7885
:1045F000002C0BD1A74B1D780521280003F054FD9A
:10460000C9B2002902D1002D00D01EE1052C00D135
:1046100016E1A14B1B78FF2B00D16FE19F4B1B785C
:10462000FF2B00D1A6E19E4B1B78FF2B00D1EAE1C6
:10463000934B1C78002C07D1964B1B780E2B00D186
:104640002DE22C2B00D12AE2964B1B78022B00D1B5
:1046500057E2022B00D171E2032B00D18CE2012042
:1046600023B030BDD02212068021C9019161864A53
:1046700000211170A4E7874A13780133DBB213706D
:104680007F4A002111703C2B30D0834B1B78002BCC
:1046900006D1854B1B78002B02D1844BFF221A7068
:1046A000834B1B78FF2B46D0814B5B79FF2B00D0CF
:1046B00088E7804BDA787E4B5B7A9A4200D081E7BC
:1046C00000F0EEFA002800D17CE7FF236E4A137059
:1046D000D02212068021C9015161774A1370774BAD
:1046E00002221A70764B00221A706BE7694B002287
:1046F0001A70744A13780133DBB21370182B16D07A
:10470000714B00221A70614B1B685B07BDD50023FB
:1047100001936C4B1B78009300236C4902A803F0B3
:1047200043FC02AA6A496B48FFF758FBADE7130048
:1047300000221A70E4E75F4BDA785D4B1B799A42EE
:10474000B2D100F081FA0028AED0FF234E4A137098
:10475000D02212068021C9015161574A1370574B6C
:1047600001221A70564B00221A709DE7494B1B78A4
:10477000434A1278544909780191524909780091C5
:10478000524902A803F010FC524C02AA52492000E0
:10479000FFF724FB514B1B78514AD15C514B1B78DE
:1047A0003B4A127801915049097800914F4902A87B
:1047B00003F0FAFB02AA4E492000FFF70FFB06E7C1
:1047C000484A1278484909788A4200D30BE73D48A5
:1047D0000078824200D906E7814200D203E72D4BE0
:1047E0001B78002B00D001E7374B1B78002B00D043
:1047F000FCE63A4B1B783A4AD35C002B00D0F5E636
:10480000D0231B068022D2015A61FF232A4A13704B
:104810002A4A032111702A4A002111702A4A137072
:10482000E4E6314B1B782F4A1278934200D3DDE641
:10483000244909788B42D2D98A4200D2D6E6CEE703
:10484000144B1B78002B00D0E3E62A4B1B78FF2B80
:1048500000D0DEE6284B1B78042B00D0D9E6FC20E4
:10486000FCF7E8FCF420FCF7E5FCF920FCF7E2FC9F
:10487000F720FCF7DFFCF320FCF7DCFCC9E6C046C0
:104880006A2B0020382B00204C2B0020080F002022
:104890005D2B0020472B00204F2B0020562B0020A3
:1048A000572B0020602B0020692B00205C2B002060
:1048B00044100020682700205B2B0020762B00206E
:1048C000742B0020462B00204D2B0020F897001061
:1048D00041270000008003407F27000035090020A9
:1048E000701A002062060020600600203498001034
:1048F0008127000070070020432B0020A94A13786D
:104900000133DBB21370142B00D087E6FDF73AF9C0
:10491000FDF764F8A44B1A78A44B1A70A44B1B78CB
:10492000002B05D19A00D218A249525CFF2A14D05C
:104930009F4B1B78002B00D170E69A00D2189D493E
:10494000525CFF2A00D069E69A00D2188B181A79B7
:10495000D978987800F0B4FA60E69900CB189549B8
:10496000C918CB788A78097900910021012000F0DC
:1049700023FADDE7904B1B78002B1DD18F4A12786C
:10498000002A19D1D0231B068022D2015A61FF22AE
:104990008B4B1A708B4B0621197000238A490B70C0
:1049A0008A490B708A490B708A4B1A708A4A93782D
:1049B00003218B43937036E688490A7801320A70E6
:1049C000013BDBB27C4A1370FF2B18D07A4B1B786B
:1049D000002B0CD1794B1B78002B08D0013B774A78
:1049E0001370754B3B221A707D4B00221A707B4B63
:1049F00000221A70704B1A78794B1A7013E6130064
:104A000000221A70E2E76C4A13780133DBB21370AC
:104A100072490A7801320A703C2B07D06F4B002292
:104A20001A70654B1A786E4B1A7001E6624B0022C1
:104A30001A70624A13780133DBB213703C2BEDD14C
:104A4000130000221A70E9E7D0231B068022D2014E
:104A50005A615B4BFF221A705A4BFE3A1A705A4B3E
:104A600000221A70F0E55F4A12785F4909788A429D
:104A700038D25E480078824234D8814232D3D02383
:104A80001B068022D2015A614D4BFF221A704D4BFA
:104A9000FB3A1A704C4B00221A700134E4B2312CEC
:104AA00000D9D1E52E236343514A9A5C514B1B78C0
:104AB0009A42F2D12E2262434D4B9B185A784E4BAC
:104AC0001B789A42E9D12000FCF7B4FB0028BBD147
:104AD0004A4B1B88002BE0D1494B1B78012BCED0D1
:104AE000022BC0D0022BD8D13F4B1B783D4A127805
:104AF0009342D2D23D4909788B42C0D98A42CCD365
:104B0000BDE73A4A12783F4909788A4204D33E49C0
:104B100009788A4200D29CE53C4A1278002A00D0EB
:104B200097E53B4A12783B498A5C002A00D090E521
:104B300029490A78242002430A708AE52B4A127810
:104B4000304909788A4200D286E52F4909788A429D
:104B500000D381E52D4A1278002A00D07CE52C4A4A
:104B600012782C498A5C002A00D075E51A490A7827
:104B7000242082430A706FE5FBF704FF93235B0058
:104B8000984204D8144A137824210B431370C82385
:104B90005B00984200D862E50F4A137824218B43CA
:104BA00013705CE55E2B0020642B00206C2B002032
:104BB000422B002044100020702B00206E2B002080
:104BC0005B2B0020762B0020742B00206B2B002009
:104BD000562B0020592B00205C190020712B00203F
:104BE000722B00206206002060060020462B002069
:104BF00060100020442B0020492B0020382B00207F
:104C00005D2B00202A0900202B0900206A2B0020A0
:104C100035090020701A0020020003090F201040FF
:104C20009A009B185B00C018C0B2704770B50500B1
:104C30000A2103F011FA04000A21280003F00CFAFB
:104C400024016418E0B270BD10B584B00F236A4629
:104C50009381124C0E3B009303AA6821200004F0BC
:104C600037FA0023009301330D226A4468212000A3
:104C700004F03AFA6B465B7BDA0702D4002004B0FA
:104C800010BD03AA01218B4353700023009302330C
:104C90006731024804F01CFA0120F0E7AC0A00205A
:104CA00010B584B00F236A469381124C0E3B0093DB
:104CB00003AA6821200004F00BFA002300930133BB
:104CC0000D226A446821200004F00EFA6B465B7BDB
:104CD0009A0702D4002004B010BD03AA02218B431E
:104CE00053700023009302336631024804F0F0F958
:104CF0000120F0E7AC0A002030B583B0002413E0B7
:104D00000B4A12190B4D012300936821280004F06F
:104D1000DFF9094A121900230093013368212800A2
:104D200004F0E2F90134E4B20F2CE9D903B030BD4C
:104D3000E0090020AC0A0020541A002010B5FFF74B
:104D4000DBFF002406E0054B185DFFF765FF044B11
:104D5000185501340D2CF6DD10BDC046541A002044
:104D600050100020F0B587B004000F226A440027DD
:104D70001770104E012300936821300004F0A8F949
:104D800004AD009707232A006821300004F0ACF935
:104D90002B7823706B786370AB78A370EB78E3703B
:104DA0002B7923716B796371AB79A371200007B004
:104DB000F0BDC046AC0A0020F0B5DE46574680B5CF
:104DC00089B00400080016001D0010AB1B789B463C
:104DD000FFF72CFF039082463000FFF727FF029079
:104DE00006002800FFF722FF050007005846FFF7DE
:104DF0001DFF0100032C57D00AD8012C18D0022C1B
:104E00001AD180235B421843C1B22B43DFB213E0B7
:104E1000042C11D180235B421843C1B21D43EFB271
:104E2000029E1E43F6B2039A1343DBB29A4603E096
:104E3000802149420143C9B206AA07231370534691
:104E400053709670D77011711C4D00260096052383
:104E50006821280004F03CF905AC0E2323800D3BAB
:104E6000009322006821280004F032F90096012303
:104E70000D2202A98C4662446821280004F034F90E
:104E8000637801221343DBB263700422134363701F
:104E90000096022322006821280004F019F909B0C5
:104EA000C0BCBB46B246F0BD80235B421843C1B2D2
:104EB0001D43EFB2029A1343DEB2BDE7AC0A0020F5
:104EC00070B584B00C001600FFF7B0FE050020009E
:104ED000FFF7ACFE04003000FFF7A8FE80235B4222
:104EE000034303AA0B21117055709470D370154DB4
:104EF0000026009604235D31280004F0E9F802AC96
:104F00000E2323800D3B009322006821280004F02B
:104F1000DFF80096012309226A446821280004F082
:104F2000E3F8637802221343DBB263700422134375
:104F300063700096022322006821280004F0C8F85C
:104F400004B070BDAC0A002000B585B004236A46E9
:104F50009381FFF76BFE6B46587300230093023377
:104F600003AA6821024804F0B3F805B000BDC046AA
:104F7000AC0A002000B585B003236A469381FFF791
:104F800055FE6B46587300230093023303AA682131
:104F9000024804F09DF805B000BDC046AC0A0020F0
:104FA00000B585B002236A469381FFF73FFE6B464A
:104FB000587300230093023303AA6821024804F0C7
:104FC00087F805B000BDC046AC0A002030B585B0FA
:104FD000050003AC0B4B1A8822809B78A37032200B
:104FE000FFF724FE60702800FFF720FEA07000236A
:104FF0000093033322006821034804F069F805B0E8
:1050000030BDC046E09A0010AC0A002000B585B063
:1050100005236A469381FFF709FE6B465873002308
:105020000093023303AA6821024804F051F805B046
:1050300000BDC046AC0A002000B585B006236A4614
:105040009381FFF7F3FD6B465873002300930233FF
:1050500003AA6821024804F03BF805B000BDC04631
:10506000AC0A002010B58300084A944663441C68CB
:1050700040226240C02414408022520113431C602D
:10508000C000034B9C466044416010BD04C0014019
:105090000040014080000B4B9C46604400290DD02D
:1050A0000823002A0CD004221343026853400C2228
:1050B0001340802252011043036070470023F0E741
:1050C0000022F1E704C00140002909D08000094B0B
:1050D0009C46604480239B01184340230360704733
:1050E0008000044B9C466044C0239B01184340232E
:1050F0000360F4E704C0014010B501238340D022CF
:105100001206936293610521FFF7ACFF10BD00000A
:10511000EFF3108072B6034B1B68002BFBD0BFF37C
:105120005F8F70472C0100D0BFF35F8F024B0022CE
:105130001A6080F3108870472C0100D0F8B5060083
:105140000C001500FFF7E4FFE308F718F15C0722F5
:105150002240012393400B4205D1DBB20B433B704D
:10516000FFF7E2FFF8BD2100280001F0ADFC0000D0
:10517000034B1B6802201840431E9841C0B2704781
:1051800000C00640002307E0054A9A189200BFF3CA
:105190005F8F0021116001331F2BF5D97047C04686
:1051A00040000034054A1078431CDBB21370172B03
:1051B00002D9130010221A707047C046F10900206E
:1051C000074B9B68103080001950BFF35F8FBFF30F
:1051D0005F8F044B0021196082F310887047C0462E
:1051E00000ED00E0240100D010B5091A081F0A4B99
:1051F0009C466144094A914208D8C30706D440102E
:105200004005400D064B184380B210BD054B064AC1
:105210009921064801F0BEFBFC070000FE0F0000CC
:1052200000E0FFFFE49A0010249D0010149B001082
:1052300010B5091A04394C08090B08D14905490D64
:10524000064A11430180064B2343438010BD054BA2
:10525000054AA121054801F09DFBC04600F0FFFF73
:1052600000F8FFFF509B0010F89C0010149B0010EA
:1052700001238340034A10681840431E9841C0B27E
:105280007047C04600E100E0002904D0034B1860DD
:10529000034B18607047034B1860FBE780E200E0A7
:1052A00000E100E080E100E010B501238340180038
:1052B000FFF7EAFF10BD0000024B9B681030800032
:1052C000C058704700ED00E070B504000D00EFF32A
:1052D000108672B60C4B1B68002BFBD0BFF35F8FA0
:1052E0002000FFF7E9FF094B984201D0A84205D101
:1052F000320029002000FFF763FF70BD044B054A10
:105300007C21054801F046FB240100D0CD010010AE
:10531000609B0010409D0010149B0010F0B5CE461D
:10532000474680B583B006000D00EFF3108872B6D3
:10533000564B1B68002BFBD0BFF35F8F544B9A6812
:1053400034001034A300D758524B9F4207D0AF42CD
:1053500000D199E00197504BFB1A2F2B09D94246F7
:1053600039003000FFF72CFF03B0C0BCB946B0468F
:10537000F0BD3000FFF77CFF814600213000FFF7D1
:1053800093FFBFF35F8FFAF76EFF002801D08442CE
:1053900011D10123019C9C430022A368AB4212D08F
:1053A0000622A256002A0DDB53009B189B00220008
:1053B000394CE418F1E72C21384B394AFF31394890
:1053C00001F0E8FA2200AB4257D106256557002DBF
:1053D00039DB6B005B199A002F4B9B189A68A2600F
:1053E000DA79E27106229A56A2719B795BB2002BA0
:1053F00010DABD200002A0806B005B199B00264ADA
:10540000D318294A11789971157049463000FFF771
:105410004BFFA4E7201D6B005B199B001E4A9B18E5
:105420001A1D9B88D90A1C2907D15B055B1502331D
:1054300059005118FFF7D8FEDDE71C4B1C4AA72185
:10544000184801F0A7FA002812D1002A0ED0FF2335
:105450009371184B9380144A1378A371164B0E491D
:10546000641A644163431B0D1370CEE7094FF2E7E2
:10547000201D1249FFF7DCFEC7E76021104B084AE8
:10548000FF31084801F086FA024F68E7240100D096
:1054900000ED00E0CD010010F4090020749C001024
:1054A000109D0010149B00107A2B00205C9C0010B3
:1054B000309D001000BDFFFFAAAA00002E0A0020A8
:1054C000989C001070B50400012606432D4BF31A7A
:1054D0002F2B28D8FAF7C7FE00282BD0EFF3108C1B
:1054E00072B6294B1B68002BFBD0BFF35F8F274D93
:1054F00022002449521A524155432D0D6DB2244BBE
:105500009B6880001B58B3421BD00022032A32D86C
:1055100053009B189B001B49CB189B795BB2AB4295
:105520001FD00132F2E7C2211A4B1B4A49001B4827
:1055300001F030FA88211A4B174AFF31174801F061
:1055400029FA134B9B68174A1A50174B1A78A27105
:105550001D70BFF35F8F0C4B00221A608CF3108814
:1055600070BD08005300991889004118FF268E71FC
:105570000E4A8A80E9E7CC210D4B074A49000748CB
:1055800001F008FAF4090020240100D0AAAA0000C2
:1055900000ED00E0A09C0010DC9C0010149B0010AB
:1055A000C89C0010CD0100107A2B002000BDFFFF29
:1055B000D49C00100022044B02E0044902C30132D3
:1055C000072AFAD97047C04600E400E08080808056
:1055D00070B504000E001500FFF7E4FD0100200087
:1055E00000F006F8A680E580BFF35F8F70BD000075
:1055F000024B9C46614489000160704740000034C2
:1056000010B50C00CB68834207D108000B6998479E
:10561000002809D02068616810BD9621054B064A14
:105620004900064801F0B6F90023E360002000219C
:10563000F2E7C0465C9D001018A00010709D00109D
:1056400070B505000C00080000F0E8FD200000F037
:10565000CDFE0849200000F00DFEFFF7A3FD064B2C
:105660009C466044800068602C75A400034BE550A4
:1056700070BDC0468559001040000034F02800205D
:105680000A4B1A68EFF3108172B61368002BFCD036
:10569000BFF35F8F054B1B68BFF35F8F00221A605B
:1056A00081F3108840BF0020002170470C2B0020A0
:1056B00010B5002922D003681B7B99421ED8174BD6
:1056C0009C466144090183689C4661440C684968B2
:1056D000002A19D003681B7B9A4215D883680F48AB
:1056E0008446624412019A1810685368020001202F
:1056F0008B4201D80ED00020C0B210BD084B094A21
:105700003B21094801F046F9054B064A3B21064872
:1057100001F040F9A242EFD8EDE7C046FFFFFF0FCE
:10572000A89D001080A00010709D001010B50029E9
:105730001ED0037B99421BD84B005B18033B0468C7
:10574000A4466344002919D0002A1DD0914221D0DB
:10575000002A25D0047BA24222D804685000801879
:10576000033820188170197800291FD11A7010BDD4
:10577000104B114A6821114801F00CF9104B114AE5
:105780006F310E4801F006F90F4B0E4A70210B489D
:1057900001F000F90D4B0B4A7121084801F0FAF8AD
:1057A000044B054A6821054801F0F4F841701A706D
:1057B000DDE7C046DC9D0010ECA00010F89D001055
:1057C000409E0010C8A000104C9E0010589E001073
:1057D00070B506000D001400002914D0002A14D062
:1057E000806873689847002806D02200290030009E
:1057F000FFF79CFF280007E02A0021003000FFF798
:1058000095FF200000E0100070BD0800FCE70000DC
:10581000F0B583B00500009201930AAB1C780BAB86
:105820001F78002C26D003685A7B944207D10123AD
:10583000002B19D1002C3BD1200003B0F0BD002C6F
:105840000CD01A7B944209D81A6863001B19033BD9
:10585000D3189B78002BEBD00123E9E73E4B3F4A5E
:1058600068213F4801F096F83E4B3F4A65213F488A
:1058700001F090F803689C7B002CDBD012D01A7BDF
:1058800094420FD862001219033A19688C46624498
:1058900051789973002900D1D97300239370537004
:1058A0001370C7E72C4B2D4A68212D4801F072F880
:1058B000002C3AD02B681B7B9C4236D82C4BE3182B
:1058C0001B01AA6894466344009A1A60019A5A60C0
:1058D000089A9A60099ADA602E68002C2BD030D092
:1058E000337B9C422DD863001B19033B32689446DE
:1058F000634400229A705A701A70717B2200300043
:10590000FFF766FF7073844200D095E7287D009A08
:10591000019B00F0F7FC061E01D0002F17D00C9B56
:10592000002B00D188E71E7086E7124B124A3B21FC
:105930000E4801F02FF8114B114AA521084801F03B
:1059400029F8054B054A6821054801F023F8286825
:10595000210000F0FFFEE2E7DC9D0010ECA000104B
:10596000F89D0010709E0010F8A00010709D0010AF
:10597000FFFFFF0FA89D001080A000106C9D00107D
:10598000DCA00010F0B5DE4657464E464546E0B571
:105990008BB00990002308938200B24BD658370091
:1059A00032E0B14BB14A3F21B14800F0F3FFB14BB7
:1059B000B14A3B21B14800F0EDFFB14BB14A8C2117
:1059C000AE4800F0E7FFB04BAE4A9021AB4800F084
:1059D000E1FFA84BAD4A4021A84800F0DBFF2A6850
:1059E0006B68099800F08EFC00239A4698467B6805
:1059F000BFF35F8F00221A6086F310884346002BA6
:105A000051D1002800D126E100F014FC02000B1E49
:105A1000C7DB00200021069007917868EFF310861D
:105A200072B601680029FCD0BFF35F8F39688846E1
:105A30004C7B002C32D0BAD0097B8C42B7D8944929
:105A400065182D01B9688C46654428686968801A14
:105A500099410029C3DC01D10028C0D10021404672
:105A600000F06EFEA042A8D12A686B6806920793E8
:105A7000AB689846EB689A464346002BA3D0002CAF
:105A8000A7D03B681B7B9C42A3D8631EFA68D35CFB
:105A900008931B02184338610020A8E700239A46A8
:105AA00098460020A3E7089B1B02234399465146D2
:105AB0001800C04705000E007A68EFF3108B72B62D
:105AC000136859424B41D9B2002BF9D1BFF35F8F14
:105AD000002E26DB002E52DD3B69002B53D04B45B8
